{
  "contractName": "Donation",
  "abi": [
    {
      "inputs": [
        {
          "internalType": "address",
          "name": "pa",
          "type": "address"
        }
      ],
      "stateMutability": "nonpayable",
      "type": "constructor"
    },
    {
      "inputs": [],
      "name": "donate",
      "outputs": [],
      "stateMutability": "payable",
      "type": "function",
      "payable": true
    },
    {
      "inputs": [],
      "name": "getalldonations",
      "outputs": [
        {
          "components": [
            {
              "internalType": "string",
              "name": "sender",
              "type": "string"
            },
            {
              "internalType": "uint256",
              "name": "value",
              "type": "uint256"
            },
            {
              "internalType": "uint256",
              "name": "timestamp",
              "type": "uint256"
            }
          ],
          "internalType": "struct Donation.donation[]",
          "name": "",
          "type": "tuple[]"
        }
      ],
      "stateMutability": "view",
      "type": "function",
      "constant": true
    }
  ],
  "bytecode": "0x608060405234801561001057600080fd5b50604051610cda380380610cda8339818101604052810190610032919061011c565b33600260006101000a81548173ffffffffffffffffffffffffffffffffffffffff021916908373ffffffffffffffffffffffffffffffffffffffff160217905550806000806101000a81548173ffffffffffffffffffffffffffffffffffffffff021916908373ffffffffffffffffffffffffffffffffffffffff16021790555050610149565b600080fd5b600073ffffffffffffffffffffffffffffffffffffffff82169050919050565b60006100e9826100be565b9050919050565b6100f9816100de565b811461010457600080fd5b50565b600081519050610116816100f0565b92915050565b600060208284031215610132576101316100b9565b5b600061014084828501610107565b91505092915050565b610b82806101586000396000f3fe6080604052600436106100295760003560e01c80631fb3d6861461002e578063ed88c68e14610059575b600080fd5b34801561003a57600080fd5b50610043610063565b60405161005091906105d2565b60405180910390f35b610061610168565b005b60606003805480602002602001604051908101604052809291908181526020016000905b8282101561015f57838290600052602060002090600302016040518060600160405290816000820180546100ba90610623565b80601f01602080910402602001604051908101604052809291908181526020018280546100e690610623565b80156101335780601f1061010857610100808354040283529160200191610133565b820191906000526020600020905b81548152906001019060200180831161011657829003601f168201915b505050505081526020016001820154815260200160028201548152505081526020019060010190610087565b50505050905090565b6000600260009054906101000a900473ffffffffffffffffffffffffffffffffffffffff1673ffffffffffffffffffffffffffffffffffffffff16346040516101b090610685565b60006040518083038185875af1925050503d80600081146101ed576040519150601f19603f3d011682016040523d82523d6000602084013e6101f2565b606091505b505090506101fe610241565b8061023e576040517f08c379a0000000000000000000000000000000000000000000000000000000008152600401610235906106f7565b60405180910390fd5b50565b60008060009054906101000a900473ffffffffffffffffffffffffffffffffffffffff1673ffffffffffffffffffffffffffffffffffffffff16636f77926b336040518263ffffffff1660e01b815260040161029d9190610758565b600060405180830381865afa1580156102ba573d6000803e3d6000fd5b505050506040513d6000823e3d601f19601f820116820180604052508101906102e39190610b03565b905060006040518060600160405280836020015181526020013481526020014281525090506003819080600181540180825580915050600190039060005260206000209060030201600090919091909150600082015181600001908051906020019061035092919061036b565b50602082015181600101556040820151816002015550505050565b82805461037790610623565b90600052602060002090601f01602090048101928261039957600085556103e0565b82601f106103b257805160ff19168380011785556103e0565b828001600101855582156103e0579182015b828111156103df5782518255916020019190600101906103c4565b5b5090506103ed91906103f1565b5090565b5b8082111561040a5760008160009055506001016103f2565b5090565b600081519050919050565b600082825260208201905092915050565b6000819050602082019050919050565b600081519050919050565b600082825260208201905092915050565b60005b83811015610474578082015181840152602081019050610459565b83811115610483576000848401525b50505050565b6000601f19601f8301169050919050565b60006104a58261043a565b6104af8185610445565b93506104bf818560208601610456565b6104c881610489565b840191505092915050565b6000819050919050565b6104e6816104d3565b82525050565b60006060830160008301518482036000860152610509828261049a565b915050602083015161051e60208601826104dd565b50604083015161053160408601826104dd565b508091505092915050565b600061054883836104ec565b905092915050565b6000602082019050919050565b60006105688261040e565b6105728185610419565b9350836020820285016105848561042a565b8060005b858110156105c057848403895281516105a1858261053c565b94506105ac83610550565b925060208a01995050600181019050610588565b50829750879550505050505092915050565b600060208201905081810360008301526105ec818461055d565b905092915050565b7f4e487b7100000000000000000000000000000000000000000000000000000000600052602260045260246000fd5b6000600282049050600182168061063b57607f821691505b60208210810361064e5761064d6105f4565b5b50919050565b600081905092915050565b50565b600061066f600083610654565b915061067a8261065f565b600082019050919050565b600061069082610662565b9150819050919050565b600082825260208201905092915050565b7f4661696c656420746f2073656e64206d6f6e6579000000000000000000000000600082015250565b60006106e160148361069a565b91506106ec826106ab565b602082019050919050565b60006020820190508181036000830152610710816106d4565b9050919050565b600073ffffffffffffffffffffffffffffffffffffffff82169050919050565b600061074282610717565b9050919050565b61075281610737565b82525050565b600060208201905061076d6000830184610749565b92915050565b6000604051905090565b600080fd5b600080fd5b600080fd5b7f4e487b7100000000000000000000000000000000000000000000000000000000600052604160045260246000fd5b6107c482610489565b810181811067ffffffffffffffff821117156107e3576107e261078c565b5b80604052505050565b60006107f6610773565b905061080282826107bb565b919050565b600080fd5b610815816104d3565b811461082057600080fd5b50565b6000815190506108328161080c565b92915050565b600080fd5b600080fd5b600067ffffffffffffffff82111561085d5761085c61078c565b5b61086682610489565b9050602081019050919050565b600061088661088184610842565b6107ec565b9050828152602081018484840111156108a2576108a161083d565b5b6108ad848285610456565b509392505050565b600082601f8301126108ca576108c9610838565b5b81516108da848260208601610873565b91505092915050565b6108ec81610737565b81146108f757600080fd5b50565b600081519050610909816108e3565b92915050565b600067ffffffffffffffff82111561092a5761092961078c565b5b602082029050602081019050919050565b600080fd5b600061095361094e8461090f565b6107ec565b905080838252602082019050602084028301858111156109765761097561093b565b5b835b8181101561099f578061098b8882610823565b845260208401935050602081019050610978565b5050509392505050565b600082601f8301126109be576109bd610838565b5b81516109ce848260208601610940565b91505092915050565b60008115159050919050565b6109ec816109d7565b81146109f757600080fd5b50565b600081519050610a09816109e3565b92915050565b600060c08284031215610a2557610a24610787565b5b610a2f60c06107ec565b90506000610a3f84828501610823565b600083015250602082015167ffffffffffffffff811115610a6357610a62610807565b5b610a6f848285016108b5565b602083015250604082015167ffffffffffffffff811115610a9357610a92610807565b5b610a9f848285016108b5565b6040830152506060610ab3848285016108fa565b606083015250608082015167ffffffffffffffff811115610ad757610ad6610807565b5b610ae3848285016109a9565b60808301525060a0610af7848285016109fa565b60a08301525092915050565b600060208284031215610b1957610b1861077d565b5b600082015167ffffffffffffffff811115610b3757610b36610782565b5b610b4384828501610a0f565b9150509291505056fea2646970667358221220fe04df41ba07aa19ffb7bb9892d8432c10564d30cc28ed58f3c35353e60be7b564736f6c634300080d0033",
  "immutableReferences": {},
  "source": "pragma solidity ^0.8.0;\n\ninterface IPets {\n    struct User {\n        uint id;\n        string username;\n        string email;\n        address account_number;\n        uint[] liked;\n        bool created;\n    }\n    function getUser(address useraddress) external view returns (User memory);\n}\n\n\ncontract Donation {\n\n    IPets petcontract;\n\n    struct donation {\n        string sender;\n        uint value;\n        uint timestamp;\n    }\n    uint totalDonations;\n    address payable owner;\n\n    donation[] donations;\n\n    constructor(address pa) {\n        owner = payable(msg.sender);\n        petcontract = IPets(pa);\n\n    }\n\n\n    function donate() public payable {\n        (bool success,) = owner.call{value: msg.value}(\"\");\n        addGiver();\n        // IPets.User memory u = petcontract.getUser(msg.sender);\n        // donation memory d = donation(u.username, msg.value, block.timestamp);\n        // donations.push(d);\n        require(success, \"Failed to send money\");\n    }\n\n\n    function getalldonations() public view returns (donation[] memory) {\n        return donations;\n    }\n\n    function addGiver() internal {\n        IPets.User memory u = petcontract.getUser(msg.sender);\n        donation memory d = donation(u.username, msg.value, block.timestamp);\n        donations.push(d);\n    }\n\n\n\n\n\n\n}",
  "sourcePath": "/Users/chuntungchu/Documents/ece-meng/aps1050/APS1050_project/solidity/contracts/Donation.sol",
  "compiler": {
    "name": "solc",
    "version": "0.8.13+commit.abaa5c0e.Emscripten.clang"
  },
  "schemaVersion": "3.4.6",
  "updatedAt": "2022-04-21T01:26:26.727Z",
  "networkType": "ethereum",
  "devdoc": {
    "kind": "dev",
    "methods": {},
    "version": 1
  },
  "userdoc": {
    "kind": "user",
    "methods": {},
    "version": 1
  }
}