{
  "contractName": "Pets",
  "abi": [
    {
      "inputs": [],
      "name": "checkUser",
      "outputs": [
        {
          "internalType": "bool",
          "name": "",
          "type": "bool"
        }
      ],
      "stateMutability": "view",
      "type": "function",
      "constant": true
    },
    {
      "inputs": [
        {
          "internalType": "address",
          "name": "useraddress",
          "type": "address"
        }
      ],
      "name": "getUser",
      "outputs": [
        {
          "components": [
            {
              "internalType": "uint256",
              "name": "id",
              "type": "uint256"
            },
            {
              "internalType": "string",
              "name": "username",
              "type": "string"
            },
            {
              "internalType": "string",
              "name": "email",
              "type": "string"
            },
            {
              "internalType": "address",
              "name": "account_number",
              "type": "address"
            },
            {
              "internalType": "uint256[]",
              "name": "liked",
              "type": "uint256[]"
            },
            {
              "internalType": "bool",
              "name": "created",
              "type": "bool"
            }
          ],
          "internalType": "struct Pets.User",
          "name": "",
          "type": "tuple"
        }
      ],
      "stateMutability": "view",
      "type": "function",
      "constant": true
    },
    {
      "inputs": [
        {
          "internalType": "string",
          "name": "username",
          "type": "string"
        },
        {
          "internalType": "string",
          "name": "email",
          "type": "string"
        }
      ],
      "name": "registerUser",
      "outputs": [
        {
          "components": [
            {
              "internalType": "uint256",
              "name": "id",
              "type": "uint256"
            },
            {
              "internalType": "string",
              "name": "username",
              "type": "string"
            },
            {
              "internalType": "string",
              "name": "email",
              "type": "string"
            },
            {
              "internalType": "address",
              "name": "account_number",
              "type": "address"
            },
            {
              "internalType": "uint256[]",
              "name": "liked",
              "type": "uint256[]"
            },
            {
              "internalType": "bool",
              "name": "created",
              "type": "bool"
            }
          ],
          "internalType": "struct Pets.User",
          "name": "",
          "type": "tuple"
        }
      ],
      "stateMutability": "nonpayable",
      "type": "function"
    },
    {
      "inputs": [],
      "name": "getPets",
      "outputs": [
        {
          "components": [
            {
              "internalType": "uint256",
              "name": "id",
              "type": "uint256"
            },
            {
              "internalType": "string",
              "name": "name",
              "type": "string"
            },
            {
              "internalType": "string",
              "name": "img_hash",
              "type": "string"
            },
            {
              "internalType": "uint256",
              "name": "age",
              "type": "uint256"
            },
            {
              "internalType": "string",
              "name": "breed",
              "type": "string"
            },
            {
              "internalType": "string",
              "name": "location",
              "type": "string"
            },
            {
              "internalType": "uint256[]",
              "name": "likes",
              "type": "uint256[]"
            },
            {
              "internalType": "address",
              "name": "adopter",
              "type": "address"
            }
          ],
          "internalType": "struct Pets.Pet[]",
          "name": "",
          "type": "tuple[]"
        }
      ],
      "stateMutability": "view",
      "type": "function",
      "constant": true
    },
    {
      "inputs": [
        {
          "internalType": "uint256",
          "name": "age",
          "type": "uint256"
        },
        {
          "internalType": "string",
          "name": "name",
          "type": "string"
        },
        {
          "internalType": "string",
          "name": "img_hash",
          "type": "string"
        },
        {
          "internalType": "string",
          "name": "breed",
          "type": "string"
        },
        {
          "internalType": "string",
          "name": "location",
          "type": "string"
        }
      ],
      "name": "addPet",
      "outputs": [
        {
          "components": [
            {
              "internalType": "uint256",
              "name": "id",
              "type": "uint256"
            },
            {
              "internalType": "string",
              "name": "name",
              "type": "string"
            },
            {
              "internalType": "string",
              "name": "img_hash",
              "type": "string"
            },
            {
              "internalType": "uint256",
              "name": "age",
              "type": "uint256"
            },
            {
              "internalType": "string",
              "name": "breed",
              "type": "string"
            },
            {
              "internalType": "string",
              "name": "location",
              "type": "string"
            },
            {
              "internalType": "uint256[]",
              "name": "likes",
              "type": "uint256[]"
            },
            {
              "internalType": "address",
              "name": "adopter",
              "type": "address"
            }
          ],
          "internalType": "struct Pets.Pet",
          "name": "",
          "type": "tuple"
        }
      ],
      "stateMutability": "nonpayable",
      "type": "function"
    },
    {
      "inputs": [
        {
          "internalType": "uint256",
          "name": "id",
          "type": "uint256"
        }
      ],
      "name": "adopt",
      "outputs": [
        {
          "internalType": "uint256",
          "name": "",
          "type": "uint256"
        },
        {
          "internalType": "address",
          "name": "",
          "type": "address"
        }
      ],
      "stateMutability": "nonpayable",
      "type": "function"
    },
    {
      "inputs": [
        {
          "internalType": "uint256",
          "name": "petid",
          "type": "uint256"
        }
      ],
      "name": "likePet",
      "outputs": [
        {
          "internalType": "uint256[]",
          "name": "",
          "type": "uint256[]"
        },
        {
          "internalType": "uint256[]",
          "name": "",
          "type": "uint256[]"
        }
      ],
      "stateMutability": "nonpayable",
      "type": "function"
    },
    {
      "inputs": [
        {
          "internalType": "uint256",
          "name": "petid",
          "type": "uint256"
        }
      ],
      "name": "dislikePet",
      "outputs": [
        {
          "internalType": "uint256[]",
          "name": "",
          "type": "uint256[]"
        },
        {
          "internalType": "uint256[]",
          "name": "",
          "type": "uint256[]"
        }
      ],
      "stateMutability": "nonpayable",
      "type": "function"
    }
  ],
  "bytecode": "0x608060405234801561001057600080fd5b506120de806100206000396000f3fe608060405234801561001057600080fd5b50600436106100885760003560e01c80638588b2c51161005b5780638588b2c51461013c578063c15625471461016d578063de440fe91461018b578063eb697ebc146101bc57610088565b80631d2e4afd1461008d57806339df1b10146100bd5780636d71ad38146100ee5780636f77926b1461010c575b600080fd5b6100a760048036038101906100a291906116ba565b6101ec565b6040516100b49190611975565b60405180910390f35b6100d760048036038101906100d291906119c3565b6104e0565b6040516100e5929190611a5f565b60405180910390f35b6100f66107ab565b6040516101039190611c24565b60405180910390f35b61012660048036038101906101219190611c72565b610b75565b6040516101339190611975565b60405180910390f35b610156600480360381019061015191906119c3565b610db6565b604051610164929190611cbd565b60405180910390f35b610175610e46565b6040516101829190611cf5565b60405180910390f35b6101a560048036038101906101a091906119c3565b610ea2565b6040516101b3929190611a5f565b60405180910390f35b6101d660048036038101906101d19190611d10565b611013565b6040516101e39190611ec7565b60405180910390f35b6101f4611414565b6000600160003373ffffffffffffffffffffffffffffffffffffffff1673ffffffffffffffffffffffffffffffffffffffff16815260200190815260200160002090508381600101908051906020019061024f929190611462565b5082816002019080519060200190610268929190611462565b506003548160000181905550338160030160006101000a81548173ffffffffffffffffffffffffffffffffffffffff021916908373ffffffffffffffffffffffffffffffffffffffff16021790555060018160050160006101000a81548160ff02191690831515021790555060016003546102e39190611f18565b60038190555060006040518060c001604052808360000154815260200183600101805461030f90611f9d565b80601f016020809104026020016040519081016040528092919081815260200182805461033b90611f9d565b80156103885780601f1061035d57610100808354040283529160200191610388565b820191906000526020600020905b81548152906001019060200180831161036b57829003601f168201915b505050505081526020018360020180546103a190611f9d565b80601f01602080910402602001604051908101604052809291908181526020018280546103cd90611f9d565b801561041a5780601f106103ef5761010080835404028352916020019161041a565b820191906000526020600020905b8154815290600101906020018083116103fd57829003601f168201915b505050505081526020018360030160009054906101000a900473ffffffffffffffffffffffffffffffffffffffff1673ffffffffffffffffffffffffffffffffffffffff168152602001836004018054806020026020016040519081016040528092919081815260200182805480156104b257602002820191906000526020600020905b81548152602001906001019080831161049e575b505050505081526020018360050160009054906101000a900460ff1615158152509050809250505092915050565b6060806000600160003373ffffffffffffffffffffffffffffffffffffffff1673ffffffffffffffffffffffffffffffffffffffff168152602001908152602001600020905060008060008681526020019081526020016000209050600080600090505b8360040180549050811015610595578684600401828154811061056a57610569611fce565b5b90600052602060002001540361058257809150610595565b808061058d90611ffd565b915050610544565b5082600401600184600401805490506105ae9190612045565b815481106105bf576105be611fce565b5b90600052602060002001548360040182815481106105e0576105df611fce565b5b90600052602060002001819055508260040180548061060257610601612079565b5b6001900381819060005260206000200160009055905560005b826006018054905081101561067057836000015483600601828154811061064557610644611fce565b5b90600052602060002001540361065d57809150610670565b808061066890611ffd565b91505061061b565b5081600601600183600601805490506106899190612045565b8154811061069a57610699611fce565b5b90600052602060002001548260060182815481106106bb576106ba611fce565b5b9060005260206000200181905550816006018054806106dd576106dc612079565b5b6001900381819060005260206000200160009055905582600401826006018180548060200260200160405190810160405280929190818152602001828054801561074657602002820191906000526020600020905b815481526020019060010190808311610732575b505050505091508080548060200260200160405190810160405280929190818152602001828054801561079857602002820191906000526020600020905b815481526020019060010190808311610784575b5050505050905094509450505050915091565b6060600060025467ffffffffffffffff8111156107cb576107ca61158f565b5b60405190808252806020026020018201604052801561080457816020015b6107f16114e8565b8152602001906001900390816107e95790505b50905060005b600254811015610b6d57600080828152602001908152602001600020604051806101000160405290816000820154815260200160018201805461084c90611f9d565b80601f016020809104026020016040519081016040528092919081815260200182805461087890611f9d565b80156108c55780601f1061089a576101008083540402835291602001916108c5565b820191906000526020600020905b8154815290600101906020018083116108a857829003601f168201915b505050505081526020016002820180546108de90611f9d565b80601f016020809104026020016040519081016040528092919081815260200182805461090a90611f9d565b80156109575780601f1061092c57610100808354040283529160200191610957565b820191906000526020600020905b81548152906001019060200180831161093a57829003601f168201915b505050505081526020016003820154815260200160048201805461097a90611f9d565b80601f01602080910402602001604051908101604052809291908181526020018280546109a690611f9d565b80156109f35780601f106109c8576101008083540402835291602001916109f3565b820191906000526020600020905b8154815290600101906020018083116109d657829003601f168201915b50505050508152602001600582018054610a0c90611f9d565b80601f0160208091040260200160405190810160405280929190818152602001828054610a3890611f9d565b8015610a855780601f10610a5a57610100808354040283529160200191610a85565b820191906000526020600020905b815481529060010190602001808311610a6857829003601f168201915b5050505050815260200160068201805480602002602001604051908101604052809291908181526020018280548015610add57602002820191906000526020600020905b815481526020019060010190808311610ac9575b505050505081526020016007820160009054906101000a900473ffffffffffffffffffffffffffffffffffffffff1673ffffffffffffffffffffffffffffffffffffffff1673ffffffffffffffffffffffffffffffffffffffff1681525050828281518110610b4f57610b4e611fce565b5b60200260200101819052508080610b6590611ffd565b91505061080a565b508091505090565b610b7d611414565b6000600160008473ffffffffffffffffffffffffffffffffffffffff1673ffffffffffffffffffffffffffffffffffffffff168152602001908152602001600020905060006040518060c0016040528083600001548152602001836001018054610be690611f9d565b80601f0160208091040260200160405190810160405280929190818152602001828054610c1290611f9d565b8015610c5f5780601f10610c3457610100808354040283529160200191610c5f565b820191906000526020600020905b815481529060010190602001808311610c4257829003601f168201915b50505050508152602001836002018054610c7890611f9d565b80601f0160208091040260200160405190810160405280929190818152602001828054610ca490611f9d565b8015610cf15780601f10610cc657610100808354040283529160200191610cf1565b820191906000526020600020905b815481529060010190602001808311610cd457829003601f168201915b505050505081526020018360030160009054906101000a900473ffffffffffffffffffffffffffffffffffffffff1673ffffffffffffffffffffffffffffffffffffffff16815260200183600401805480602002602001604051908101604052809291908181526020018280548015610d8957602002820191906000526020600020905b815481526020019060010190808311610d75575b505050505081526020018360050160009054906101000a900460ff16151581525090508092505050919050565b60008060008060008581526020019081526020016000209050338160070160006101000a81548173ffffffffffffffffffffffffffffffffffffffff021916908373ffffffffffffffffffffffffffffffffffffffff16021790555080600001548160070160009054906101000a900473ffffffffffffffffffffffffffffffffffffffff169250925050915091565b600080600160003373ffffffffffffffffffffffffffffffffffffffff1673ffffffffffffffffffffffffffffffffffffffff16815260200190815260200160002090508060050160009054906101000a900460ff1691505090565b6060806000600160003373ffffffffffffffffffffffffffffffffffffffff1673ffffffffffffffffffffffffffffffffffffffff16815260200190815260200160002090506000806000868152602001908152602001600020905081600401816000015490806001815401808255809150506001900390600052602060002001600090919091909150558060060182600001549080600181540180825580915050600190039060005260206000200160009091909190915055816004018160060181805480602002602001604051908101604052809291908181526020018280548015610faf57602002820191906000526020600020905b815481526020019060010190808311610f9b575b505050505091508080548060200260200160405190810160405280929190818152602001828054801561100157602002820191906000526020600020905b815481526020019060010190808311610fed575b50505050509050935093505050915091565b61101b6114e8565b600080600060025481526020019081526020016000209050600254816000018190555085816001019080519060200190611056929190611462565b508481600201908051906020019061106f929190611462565b5086816003018190555083816004019080519060200190611091929190611462565b50828160050190805190602001906110aa929190611462565b5060008160070160006101000a81548173ffffffffffffffffffffffffffffffffffffffff021916908373ffffffffffffffffffffffffffffffffffffffff16021790555060016002546110fe9190611f18565b60028190555060006040518061010001604052808360000154815260200183600101805461112b90611f9d565b80601f016020809104026020016040519081016040528092919081815260200182805461115790611f9d565b80156111a45780601f10611179576101008083540402835291602001916111a4565b820191906000526020600020905b81548152906001019060200180831161118757829003601f168201915b505050505081526020018360020180546111bd90611f9d565b80601f01602080910402602001604051908101604052809291908181526020018280546111e990611f9d565b80156112365780601f1061120b57610100808354040283529160200191611236565b820191906000526020600020905b81548152906001019060200180831161121957829003601f168201915b505050505081526020018360030154815260200183600401805461125990611f9d565b80601f016020809104026020016040519081016040528092919081815260200182805461128590611f9d565b80156112d25780601f106112a7576101008083540402835291602001916112d2565b820191906000526020600020905b8154815290600101906020018083116112b557829003601f168201915b505050505081526020018360050180546112eb90611f9d565b80601f016020809104026020016040519081016040528092919081815260200182805461131790611f9d565b80156113645780601f1061133957610100808354040283529160200191611364565b820191906000526020600020905b81548152906001019060200180831161134757829003601f168201915b50505050508152602001836006018054806020026020016040519081016040528092919081815260200182805480156113bc57602002820191906000526020600020905b8154815260200190600101908083116113a8575b505050505081526020018360070160009054906101000a900473ffffffffffffffffffffffffffffffffffffffff1673ffffffffffffffffffffffffffffffffffffffff168152509050809250505095945050505050565b6040518060c00160405280600081526020016060815260200160608152602001600073ffffffffffffffffffffffffffffffffffffffff168152602001606081526020016000151581525090565b82805461146e90611f9d565b90600052602060002090601f01602090048101928261149057600085556114d7565b82601f106114a957805160ff19168380011785556114d7565b828001600101855582156114d7579182015b828111156114d65782518255916020019190600101906114bb565b5b5090506114e49190611543565b5090565b60405180610100016040528060008152602001606081526020016060815260200160008152602001606081526020016060815260200160608152602001600073ffffffffffffffffffffffffffffffffffffffff1681525090565b5b8082111561155c576000816000905550600101611544565b5090565b6000604051905090565b600080fd5b600080fd5b600080fd5b600080fd5b6000601f19601f8301169050919050565b7f4e487b7100000000000000000000000000000000000000000000000000000000600052604160045260246000fd5b6115c78261157e565b810181811067ffffffffffffffff821117156115e6576115e561158f565b5b80604052505050565b60006115f9611560565b905061160582826115be565b919050565b600067ffffffffffffffff8211156116255761162461158f565b5b61162e8261157e565b9050602081019050919050565b82818337600083830152505050565b600061165d6116588461160a565b6115ef565b90508281526020810184848401111561167957611678611579565b5b61168484828561163b565b509392505050565b600082601f8301126116a1576116a0611574565b5b81356116b184826020860161164a565b91505092915050565b600080604083850312156116d1576116d061156a565b5b600083013567ffffffffffffffff8111156116ef576116ee61156f565b5b6116fb8582860161168c565b925050602083013567ffffffffffffffff81111561171c5761171b61156f565b5b6117288582860161168c565b9150509250929050565b6000819050919050565b61174581611732565b82525050565b600081519050919050565b600082825260208201905092915050565b60005b8381101561178557808201518184015260208101905061176a565b83811115611794576000848401525b50505050565b60006117a58261174b565b6117af8185611756565b93506117bf818560208601611767565b6117c88161157e565b840191505092915050565b600073ffffffffffffffffffffffffffffffffffffffff82169050919050565b60006117fe826117d3565b9050919050565b61180e816117f3565b82525050565b600081519050919050565b600082825260208201905092915050565b6000819050602082019050919050565b600061184c838361173c565b60208301905092915050565b6000602082019050919050565b600061187082611814565b61187a818561181f565b935061188583611830565b8060005b838110156118b657815161189d8882611840565b97506118a883611858565b925050600181019050611889565b5085935050505092915050565b60008115159050919050565b6118d8816118c3565b82525050565b600060c0830160008301516118f6600086018261173c565b506020830151848203602086015261190e828261179a565b91505060408301518482036040860152611928828261179a565b915050606083015161193d6060860182611805565b50608083015184820360808601526119558282611865565b91505060a083015161196a60a08601826118cf565b508091505092915050565b6000602082019050818103600083015261198f81846118de565b905092915050565b6119a081611732565b81146119ab57600080fd5b50565b6000813590506119bd81611997565b92915050565b6000602082840312156119d9576119d861156a565b5b60006119e7848285016119ae565b91505092915050565b600082825260208201905092915050565b6000611a0c82611814565b611a1681856119f0565b9350611a2183611830565b8060005b83811015611a52578151611a398882611840565b9750611a4483611858565b925050600181019050611a25565b5085935050505092915050565b60006040820190508181036000830152611a798185611a01565b90508181036020830152611a8d8184611a01565b90509392505050565b600081519050919050565b600082825260208201905092915050565b6000819050602082019050919050565b600061010083016000830151611adb600086018261173c565b5060208301518482036020860152611af3828261179a565b91505060408301518482036040860152611b0d828261179a565b9150506060830151611b22606086018261173c565b5060808301518482036080860152611b3a828261179a565b91505060a083015184820360a0860152611b54828261179a565b91505060c083015184820360c0860152611b6e8282611865565b91505060e0830151611b8360e0860182611805565b508091505092915050565b6000611b9a8383611ac2565b905092915050565b6000602082019050919050565b6000611bba82611a96565b611bc48185611aa1565b935083602082028501611bd685611ab2565b8060005b85811015611c125784840389528151611bf38582611b8e565b9450611bfe83611ba2565b925060208a01995050600181019050611bda565b50829750879550505050505092915050565b60006020820190508181036000830152611c3e8184611baf565b905092915050565b611c4f816117f3565b8114611c5a57600080fd5b50565b600081359050611c6c81611c46565b92915050565b600060208284031215611c8857611c8761156a565b5b6000611c9684828501611c5d565b91505092915050565b611ca881611732565b82525050565b611cb7816117f3565b82525050565b6000604082019050611cd26000830185611c9f565b611cdf6020830184611cae565b9392505050565b611cef816118c3565b82525050565b6000602082019050611d0a6000830184611ce6565b92915050565b600080600080600060a08688031215611d2c57611d2b61156a565b5b6000611d3a888289016119ae565b955050602086013567ffffffffffffffff811115611d5b57611d5a61156f565b5b611d678882890161168c565b945050604086013567ffffffffffffffff811115611d8857611d8761156f565b5b611d948882890161168c565b935050606086013567ffffffffffffffff811115611db557611db461156f565b5b611dc18882890161168c565b925050608086013567ffffffffffffffff811115611de257611de161156f565b5b611dee8882890161168c565b9150509295509295909350565b600061010083016000830151611e14600086018261173c565b5060208301518482036020860152611e2c828261179a565b91505060408301518482036040860152611e46828261179a565b9150506060830151611e5b606086018261173c565b5060808301518482036080860152611e73828261179a565b91505060a083015184820360a0860152611e8d828261179a565b91505060c083015184820360c0860152611ea78282611865565b91505060e0830151611ebc60e0860182611805565b508091505092915050565b60006020820190508181036000830152611ee18184611dfb565b905092915050565b7f4e487b7100000000000000000000000000000000000000000000000000000000600052601160045260246000fd5b6000611f2382611732565b9150611f2e83611732565b9250827fffffffffffffffffffffffffffffffffffffffffffffffffffffffffffffffff03821115611f6357611f62611ee9565b5b828201905092915050565b7f4e487b7100000000000000000000000000000000000000000000000000000000600052602260045260246000fd5b60006002820490506001821680611fb557607f821691505b602082108103611fc857611fc7611f6e565b5b50919050565b7f4e487b7100000000000000000000000000000000000000000000000000000000600052603260045260246000fd5b600061200882611732565b91507fffffffffffffffffffffffffffffffffffffffffffffffffffffffffffffffff820361203a57612039611ee9565b5b600182019050919050565b600061205082611732565b915061205b83611732565b92508282101561206e5761206d611ee9565b5b828203905092915050565b7f4e487b7100000000000000000000000000000000000000000000000000000000600052603160045260246000fdfea264697066735822122093aa58d504de17ff7f48d74a6a5ae5f9836005f0b3b84e1855b153e1db48091064736f6c634300080d0033",
  "immutableReferences": {},
  "source": "pragma solidity ^0.8.0;\n\ncontract Pets {\n    struct Pet {\n        uint id;\n        string name;\n        string img_hash;\n        uint age;\n        string breed;\n        string location;\n        uint[] likes;\n        address adopter;\n    }\n\n    struct User {\n        uint id;\n        string username;\n        string email;\n        address account_number;\n        uint[] liked;\n        bool created;\n    }\n    \n    mapping(uint => Pet) allpets;\n    mapping(address => User) allusers;\n\n    uint pet_counter;\n    uint user_counter;\n\n\n    function checkUser() public view returns (bool) {\n        User storage user = allusers[msg.sender];\n        return user.created;\n    }\n\n    function getUser(address useraddress) external view returns (User memory) {\n        User storage user = allusers[useraddress];\n        User memory memo_user = User(user.id, user.username, user.email, user.account_number, user.liked, user.created);\n        return memo_user;\n    }\n\n    function registerUser(string memory username, string memory email) public returns (User memory) {\n        User storage user = allusers[msg.sender];\n        user.username = username;\n        user.email = email;\n        user.id = user_counter;\n        user.account_number = msg.sender;\n        user.created = true;\n        user_counter = user_counter + 1;\n        User memory memo_user = User(user.id, user.username, user.email, user.account_number, user.liked, user.created);\n        return memo_user;\n\n\n    }\n\n\n    function getPets() public view returns (Pet[] memory) {\n        Pet[] memory ret = new Pet[](pet_counter);\n        for (uint i = 0; i < pet_counter; i++) {\n            ret[i] = allpets[i];\n        }\n        return ret;\n    }\n\n    function addPet(uint age, string memory name, string memory img_hash, string memory breed, string memory location) public returns (Pet memory) {\n        Pet storage p = allpets[pet_counter];\n        p.id = pet_counter;\n        p.name = name;\n        p.img_hash = img_hash;\n        p.age = age;\n        p.breed = breed;\n        p.location = location;\n        p.adopter = address(0);\n        pet_counter = pet_counter + 1;\n        Pet memory ret = Pet(p.id, p.name, p.img_hash, p.age, p.breed, p.location, p.likes, p.adopter);\n        return ret;\n    }\n\n    function adopt(uint id) public returns (uint, address) {\n        Pet storage p = allpets[id];\n        p.adopter = msg.sender;\n        return (p.id, p.adopter);\n    }\n\n    function likePet(uint petid) public returns (uint[] memory, uint[] memory) {\n        User storage u = allusers[msg.sender];\n        Pet storage p = allpets[petid];\n        u.liked.push(p.id);\n        p.likes.push(u.id);        \n        return (u.liked, p.likes);\n    }\n\n    function dislikePet(uint petid) public returns (uint[] memory, uint[] memory) {\n        User storage u = allusers[msg.sender];\n        Pet storage p = allpets[petid];\n        \n        uint delete_idx;\n\n        for (uint i = 0; i < u.liked.length; i++) {\n            if (u.liked[i] == petid) {\n                delete_idx = i;\n                break;\n            }\n        }\n        u.liked[delete_idx] = u.liked[u.liked.length - 1];\n        u.liked.pop();\n\n        for (uint i = 0; i < p.likes.length; i++) {\n            if (p.likes[i] == u.id) {\n                delete_idx = i;\n                break;\n            }\n        }\n        p.likes[delete_idx] = p.likes[p.likes.length - 1];\n        p.likes.pop();\n   \n        return (u.liked, p.likes);\n    }\n\n}",
  "sourcePath": "/Users/chuntungchu/Documents/ece-meng/aps1050/APS1050_project/solidity/contracts/Pets.sol",
  "compiler": {
    "name": "solc",
    "version": "0.8.13+commit.abaa5c0e.Emscripten.clang"
  },
  "schemaVersion": "3.4.6",
  "updatedAt": "2022-04-19T01:13:35.203Z",
  "networkType": "ethereum",
  "devdoc": {
    "kind": "dev",
    "methods": {},
    "version": 1
  },
  "userdoc": {
    "kind": "user",
    "methods": {},
    "version": 1
  }
}