{
  "contractName": "Pets",
  "abi": [
    {
      "inputs": [],
      "name": "checkUser",
      "outputs": [
        {
          "internalType": "bool",
          "name": "",
          "type": "bool"
        }
      ],
      "stateMutability": "view",
      "type": "function",
      "constant": true
    },
    {
      "inputs": [],
      "name": "getUser",
      "outputs": [
        {
          "components": [
            {
              "internalType": "uint256",
              "name": "id",
              "type": "uint256"
            },
            {
              "internalType": "string",
              "name": "username",
              "type": "string"
            },
            {
              "internalType": "string",
              "name": "email",
              "type": "string"
            },
            {
              "internalType": "address",
              "name": "account_number",
              "type": "address"
            },
            {
              "internalType": "uint256[]",
              "name": "liked",
              "type": "uint256[]"
            },
            {
              "internalType": "bool",
              "name": "created",
              "type": "bool"
            }
          ],
          "internalType": "struct Pets.User",
          "name": "",
          "type": "tuple"
        }
      ],
      "stateMutability": "view",
      "type": "function",
      "constant": true
    },
    {
      "inputs": [
        {
          "internalType": "string",
          "name": "username",
          "type": "string"
        },
        {
          "internalType": "string",
          "name": "email",
          "type": "string"
        }
      ],
      "name": "registerUser",
      "outputs": [
        {
          "components": [
            {
              "internalType": "uint256",
              "name": "id",
              "type": "uint256"
            },
            {
              "internalType": "string",
              "name": "username",
              "type": "string"
            },
            {
              "internalType": "string",
              "name": "email",
              "type": "string"
            },
            {
              "internalType": "address",
              "name": "account_number",
              "type": "address"
            },
            {
              "internalType": "uint256[]",
              "name": "liked",
              "type": "uint256[]"
            },
            {
              "internalType": "bool",
              "name": "created",
              "type": "bool"
            }
          ],
          "internalType": "struct Pets.User",
          "name": "",
          "type": "tuple"
        }
      ],
      "stateMutability": "nonpayable",
      "type": "function"
    },
    {
      "inputs": [],
      "name": "getPets",
      "outputs": [
        {
          "components": [
            {
              "internalType": "uint256",
              "name": "id",
              "type": "uint256"
            },
            {
              "internalType": "string",
              "name": "name",
              "type": "string"
            },
            {
              "internalType": "string",
              "name": "img_hash",
              "type": "string"
            },
            {
              "internalType": "uint256",
              "name": "age",
              "type": "uint256"
            },
            {
              "internalType": "string",
              "name": "breed",
              "type": "string"
            },
            {
              "internalType": "string",
              "name": "location",
              "type": "string"
            },
            {
              "internalType": "uint256[]",
              "name": "likes",
              "type": "uint256[]"
            },
            {
              "internalType": "address",
              "name": "adopter",
              "type": "address"
            }
          ],
          "internalType": "struct Pets.Pet[]",
          "name": "",
          "type": "tuple[]"
        }
      ],
      "stateMutability": "view",
      "type": "function",
      "constant": true
    },
    {
      "inputs": [
        {
          "internalType": "uint256",
          "name": "age",
          "type": "uint256"
        },
        {
          "internalType": "string",
          "name": "name",
          "type": "string"
        },
        {
          "internalType": "string",
          "name": "img_hash",
          "type": "string"
        },
        {
          "internalType": "string",
          "name": "breed",
          "type": "string"
        },
        {
          "internalType": "string",
          "name": "location",
          "type": "string"
        }
      ],
      "name": "addPet",
      "outputs": [
        {
          "components": [
            {
              "internalType": "uint256",
              "name": "id",
              "type": "uint256"
            },
            {
              "internalType": "string",
              "name": "name",
              "type": "string"
            },
            {
              "internalType": "string",
              "name": "img_hash",
              "type": "string"
            },
            {
              "internalType": "uint256",
              "name": "age",
              "type": "uint256"
            },
            {
              "internalType": "string",
              "name": "breed",
              "type": "string"
            },
            {
              "internalType": "string",
              "name": "location",
              "type": "string"
            },
            {
              "internalType": "uint256[]",
              "name": "likes",
              "type": "uint256[]"
            },
            {
              "internalType": "address",
              "name": "adopter",
              "type": "address"
            }
          ],
          "internalType": "struct Pets.Pet",
          "name": "",
          "type": "tuple"
        }
      ],
      "stateMutability": "nonpayable",
      "type": "function"
    },
    {
      "inputs": [
        {
          "internalType": "uint256",
          "name": "id",
          "type": "uint256"
        }
      ],
      "name": "adopt",
      "outputs": [
        {
          "internalType": "uint256",
          "name": "",
          "type": "uint256"
        },
        {
          "internalType": "address",
          "name": "",
          "type": "address"
        }
      ],
      "stateMutability": "nonpayable",
      "type": "function"
    },
    {
      "inputs": [
        {
          "internalType": "uint256",
          "name": "petid",
          "type": "uint256"
        }
      ],
      "name": "likePet",
      "outputs": [
        {
          "internalType": "uint256[]",
          "name": "",
          "type": "uint256[]"
        },
        {
          "internalType": "uint256[]",
          "name": "",
          "type": "uint256[]"
        }
      ],
      "stateMutability": "nonpayable",
      "type": "function"
    },
    {
      "inputs": [
        {
          "internalType": "uint256",
          "name": "petid",
          "type": "uint256"
        }
      ],
      "name": "dislikePet",
      "outputs": [
        {
          "internalType": "uint256[]",
          "name": "",
          "type": "uint256[]"
        },
        {
          "internalType": "uint256[]",
          "name": "",
          "type": "uint256[]"
        }
      ],
      "stateMutability": "nonpayable",
      "type": "function"
    }
  ],
  "bytecode": "0x608060405234801561001057600080fd5b50612071806100206000396000f3fe608060405234801561001057600080fd5b50600436106100885760003560e01c80638588b2c51161005b5780638588b2c51461012a578063c15625471461015b578063de440fe914610179578063eb697ebc146101aa57610088565b80631d2e4afd1461008d57806339df1b10146100bd5780636d71ad38146100ee578063832880e71461010c575b600080fd5b6100a760048036038101906100a291906116a6565b6101da565b6040516100b49190611961565b60405180910390f35b6100d760048036038101906100d291906119af565b6104ce565b6040516100e5929190611a4b565b60405180910390f35b6100f6610799565b6040516101039190611c10565b60405180910390f35b610114610b63565b6040516101219190611961565b60405180910390f35b610144600480360381019061013f91906119af565b610da2565b604051610152929190611c50565b60405180910390f35b610163610e32565b6040516101709190611c88565b60405180910390f35b610193600480360381019061018e91906119af565b610e8e565b6040516101a1929190611a4b565b60405180910390f35b6101c460048036038101906101bf9190611ca3565b610fff565b6040516101d19190611e5a565b60405180910390f35b6101e2611400565b6000600160003373ffffffffffffffffffffffffffffffffffffffff1673ffffffffffffffffffffffffffffffffffffffff16815260200190815260200160002090508381600101908051906020019061023d92919061144e565b508281600201908051906020019061025692919061144e565b506003548160000181905550338160030160006101000a81548173ffffffffffffffffffffffffffffffffffffffff021916908373ffffffffffffffffffffffffffffffffffffffff16021790555060018160050160006101000a81548160ff02191690831515021790555060016003546102d19190611eab565b60038190555060006040518060c00160405280836000015481526020018360010180546102fd90611f30565b80601f016020809104026020016040519081016040528092919081815260200182805461032990611f30565b80156103765780601f1061034b57610100808354040283529160200191610376565b820191906000526020600020905b81548152906001019060200180831161035957829003601f168201915b5050505050815260200183600201805461038f90611f30565b80601f01602080910402602001604051908101604052809291908181526020018280546103bb90611f30565b80156104085780601f106103dd57610100808354040283529160200191610408565b820191906000526020600020905b8154815290600101906020018083116103eb57829003601f168201915b505050505081526020018360030160009054906101000a900473ffffffffffffffffffffffffffffffffffffffff1673ffffffffffffffffffffffffffffffffffffffff168152602001836004018054806020026020016040519081016040528092919081815260200182805480156104a057602002820191906000526020600020905b81548152602001906001019080831161048c575b505050505081526020018360050160009054906101000a900460ff1615158152509050809250505092915050565b6060806000600160003373ffffffffffffffffffffffffffffffffffffffff1673ffffffffffffffffffffffffffffffffffffffff168152602001908152602001600020905060008060008681526020019081526020016000209050600080600090505b8360040180549050811015610583578684600401828154811061055857610557611f61565b5b90600052602060002001540361057057809150610583565b808061057b90611f90565b915050610532565b50826004016001846004018054905061059c9190611fd8565b815481106105ad576105ac611f61565b5b90600052602060002001548360040182815481106105ce576105cd611f61565b5b9060005260206000200181905550826004018054806105f0576105ef61200c565b5b6001900381819060005260206000200160009055905560005b826006018054905081101561065e57836000015483600601828154811061063357610632611f61565b5b90600052602060002001540361064b5780915061065e565b808061065690611f90565b915050610609565b5081600601600183600601805490506106779190611fd8565b8154811061068857610687611f61565b5b90600052602060002001548260060182815481106106a9576106a8611f61565b5b9060005260206000200181905550816006018054806106cb576106ca61200c565b5b6001900381819060005260206000200160009055905582600401826006018180548060200260200160405190810160405280929190818152602001828054801561073457602002820191906000526020600020905b815481526020019060010190808311610720575b505050505091508080548060200260200160405190810160405280929190818152602001828054801561078657602002820191906000526020600020905b815481526020019060010190808311610772575b5050505050905094509450505050915091565b6060600060025467ffffffffffffffff8111156107b9576107b861157b565b5b6040519080825280602002602001820160405280156107f257816020015b6107df6114d4565b8152602001906001900390816107d75790505b50905060005b600254811015610b5b57600080828152602001908152602001600020604051806101000160405290816000820154815260200160018201805461083a90611f30565b80601f016020809104026020016040519081016040528092919081815260200182805461086690611f30565b80156108b35780601f10610888576101008083540402835291602001916108b3565b820191906000526020600020905b81548152906001019060200180831161089657829003601f168201915b505050505081526020016002820180546108cc90611f30565b80601f01602080910402602001604051908101604052809291908181526020018280546108f890611f30565b80156109455780601f1061091a57610100808354040283529160200191610945565b820191906000526020600020905b81548152906001019060200180831161092857829003601f168201915b505050505081526020016003820154815260200160048201805461096890611f30565b80601f016020809104026020016040519081016040528092919081815260200182805461099490611f30565b80156109e15780601f106109b6576101008083540402835291602001916109e1565b820191906000526020600020905b8154815290600101906020018083116109c457829003601f168201915b505050505081526020016005820180546109fa90611f30565b80601f0160208091040260200160405190810160405280929190818152602001828054610a2690611f30565b8015610a735780601f10610a4857610100808354040283529160200191610a73565b820191906000526020600020905b815481529060010190602001808311610a5657829003601f168201915b5050505050815260200160068201805480602002602001604051908101604052809291908181526020018280548015610acb57602002820191906000526020600020905b815481526020019060010190808311610ab7575b505050505081526020016007820160009054906101000a900473ffffffffffffffffffffffffffffffffffffffff1673ffffffffffffffffffffffffffffffffffffffff1673ffffffffffffffffffffffffffffffffffffffff1681525050828281518110610b3d57610b3c611f61565b5b60200260200101819052508080610b5390611f90565b9150506107f8565b508091505090565b610b6b611400565b6000600160003373ffffffffffffffffffffffffffffffffffffffff1673ffffffffffffffffffffffffffffffffffffffff168152602001908152602001600020905060006040518060c0016040528083600001548152602001836001018054610bd490611f30565b80601f0160208091040260200160405190810160405280929190818152602001828054610c0090611f30565b8015610c4d5780601f10610c2257610100808354040283529160200191610c4d565b820191906000526020600020905b815481529060010190602001808311610c3057829003601f168201915b50505050508152602001836002018054610c6690611f30565b80601f0160208091040260200160405190810160405280929190818152602001828054610c9290611f30565b8015610cdf5780601f10610cb457610100808354040283529160200191610cdf565b820191906000526020600020905b815481529060010190602001808311610cc257829003601f168201915b505050505081526020018360030160009054906101000a900473ffffffffffffffffffffffffffffffffffffffff1673ffffffffffffffffffffffffffffffffffffffff16815260200183600401805480602002602001604051908101604052809291908181526020018280548015610d7757602002820191906000526020600020905b815481526020019060010190808311610d63575b505050505081526020018360050160009054906101000a900460ff1615158152509050809250505090565b60008060008060008581526020019081526020016000209050338160070160006101000a81548173ffffffffffffffffffffffffffffffffffffffff021916908373ffffffffffffffffffffffffffffffffffffffff16021790555080600001548160070160009054906101000a900473ffffffffffffffffffffffffffffffffffffffff169250925050915091565b600080600160003373ffffffffffffffffffffffffffffffffffffffff1673ffffffffffffffffffffffffffffffffffffffff16815260200190815260200160002090508060050160009054906101000a900460ff1691505090565b6060806000600160003373ffffffffffffffffffffffffffffffffffffffff1673ffffffffffffffffffffffffffffffffffffffff16815260200190815260200160002090506000806000868152602001908152602001600020905081600401816000015490806001815401808255809150506001900390600052602060002001600090919091909150558060060182600001549080600181540180825580915050600190039060005260206000200160009091909190915055816004018160060181805480602002602001604051908101604052809291908181526020018280548015610f9b57602002820191906000526020600020905b815481526020019060010190808311610f87575b5050505050915080805480602002602001604051908101604052809291908181526020018280548015610fed57602002820191906000526020600020905b815481526020019060010190808311610fd9575b50505050509050935093505050915091565b6110076114d4565b60008060006002548152602001908152602001600020905060025481600001819055508581600101908051906020019061104292919061144e565b508481600201908051906020019061105b92919061144e565b508681600301819055508381600401908051906020019061107d92919061144e565b508281600501908051906020019061109692919061144e565b5060008160070160006101000a81548173ffffffffffffffffffffffffffffffffffffffff021916908373ffffffffffffffffffffffffffffffffffffffff16021790555060016002546110ea9190611eab565b60028190555060006040518061010001604052808360000154815260200183600101805461111790611f30565b80601f016020809104026020016040519081016040528092919081815260200182805461114390611f30565b80156111905780601f1061116557610100808354040283529160200191611190565b820191906000526020600020905b81548152906001019060200180831161117357829003601f168201915b505050505081526020018360020180546111a990611f30565b80601f01602080910402602001604051908101604052809291908181526020018280546111d590611f30565b80156112225780601f106111f757610100808354040283529160200191611222565b820191906000526020600020905b81548152906001019060200180831161120557829003601f168201915b505050505081526020018360030154815260200183600401805461124590611f30565b80601f016020809104026020016040519081016040528092919081815260200182805461127190611f30565b80156112be5780601f10611293576101008083540402835291602001916112be565b820191906000526020600020905b8154815290600101906020018083116112a157829003601f168201915b505050505081526020018360050180546112d790611f30565b80601f016020809104026020016040519081016040528092919081815260200182805461130390611f30565b80156113505780601f1061132557610100808354040283529160200191611350565b820191906000526020600020905b81548152906001019060200180831161133357829003601f168201915b50505050508152602001836006018054806020026020016040519081016040528092919081815260200182805480156113a857602002820191906000526020600020905b815481526020019060010190808311611394575b505050505081526020018360070160009054906101000a900473ffffffffffffffffffffffffffffffffffffffff1673ffffffffffffffffffffffffffffffffffffffff168152509050809250505095945050505050565b6040518060c00160405280600081526020016060815260200160608152602001600073ffffffffffffffffffffffffffffffffffffffff168152602001606081526020016000151581525090565b82805461145a90611f30565b90600052602060002090601f01602090048101928261147c57600085556114c3565b82601f1061149557805160ff19168380011785556114c3565b828001600101855582156114c3579182015b828111156114c25782518255916020019190600101906114a7565b5b5090506114d0919061152f565b5090565b60405180610100016040528060008152602001606081526020016060815260200160008152602001606081526020016060815260200160608152602001600073ffffffffffffffffffffffffffffffffffffffff1681525090565b5b80821115611548576000816000905550600101611530565b5090565b6000604051905090565b600080fd5b600080fd5b600080fd5b600080fd5b6000601f19601f8301169050919050565b7f4e487b7100000000000000000000000000000000000000000000000000000000600052604160045260246000fd5b6115b38261156a565b810181811067ffffffffffffffff821117156115d2576115d161157b565b5b80604052505050565b60006115e561154c565b90506115f182826115aa565b919050565b600067ffffffffffffffff8211156116115761161061157b565b5b61161a8261156a565b9050602081019050919050565b82818337600083830152505050565b6000611649611644846115f6565b6115db565b90508281526020810184848401111561166557611664611565565b5b611670848285611627565b509392505050565b600082601f83011261168d5761168c611560565b5b813561169d848260208601611636565b91505092915050565b600080604083850312156116bd576116bc611556565b5b600083013567ffffffffffffffff8111156116db576116da61155b565b5b6116e785828601611678565b925050602083013567ffffffffffffffff8111156117085761170761155b565b5b61171485828601611678565b9150509250929050565b6000819050919050565b6117318161171e565b82525050565b600081519050919050565b600082825260208201905092915050565b60005b83811015611771578082015181840152602081019050611756565b83811115611780576000848401525b50505050565b600061179182611737565b61179b8185611742565b93506117ab818560208601611753565b6117b48161156a565b840191505092915050565b600073ffffffffffffffffffffffffffffffffffffffff82169050919050565b60006117ea826117bf565b9050919050565b6117fa816117df565b82525050565b600081519050919050565b600082825260208201905092915050565b6000819050602082019050919050565b60006118388383611728565b60208301905092915050565b6000602082019050919050565b600061185c82611800565b611866818561180b565b93506118718361181c565b8060005b838110156118a2578151611889888261182c565b975061189483611844565b925050600181019050611875565b5085935050505092915050565b60008115159050919050565b6118c4816118af565b82525050565b600060c0830160008301516118e26000860182611728565b50602083015184820360208601526118fa8282611786565b915050604083015184820360408601526119148282611786565b915050606083015161192960608601826117f1565b50608083015184820360808601526119418282611851565b91505060a083015161195660a08601826118bb565b508091505092915050565b6000602082019050818103600083015261197b81846118ca565b905092915050565b61198c8161171e565b811461199757600080fd5b50565b6000813590506119a981611983565b92915050565b6000602082840312156119c5576119c4611556565b5b60006119d38482850161199a565b91505092915050565b600082825260208201905092915050565b60006119f882611800565b611a0281856119dc565b9350611a0d8361181c565b8060005b83811015611a3e578151611a25888261182c565b9750611a3083611844565b925050600181019050611a11565b5085935050505092915050565b60006040820190508181036000830152611a6581856119ed565b90508181036020830152611a7981846119ed565b90509392505050565b600081519050919050565b600082825260208201905092915050565b6000819050602082019050919050565b600061010083016000830151611ac76000860182611728565b5060208301518482036020860152611adf8282611786565b91505060408301518482036040860152611af98282611786565b9150506060830151611b0e6060860182611728565b5060808301518482036080860152611b268282611786565b91505060a083015184820360a0860152611b408282611786565b91505060c083015184820360c0860152611b5a8282611851565b91505060e0830151611b6f60e08601826117f1565b508091505092915050565b6000611b868383611aae565b905092915050565b6000602082019050919050565b6000611ba682611a82565b611bb08185611a8d565b935083602082028501611bc285611a9e565b8060005b85811015611bfe5784840389528151611bdf8582611b7a565b9450611bea83611b8e565b925060208a01995050600181019050611bc6565b50829750879550505050505092915050565b60006020820190508181036000830152611c2a8184611b9b565b905092915050565b611c3b8161171e565b82525050565b611c4a816117df565b82525050565b6000604082019050611c656000830185611c32565b611c726020830184611c41565b9392505050565b611c82816118af565b82525050565b6000602082019050611c9d6000830184611c79565b92915050565b600080600080600060a08688031215611cbf57611cbe611556565b5b6000611ccd8882890161199a565b955050602086013567ffffffffffffffff811115611cee57611ced61155b565b5b611cfa88828901611678565b945050604086013567ffffffffffffffff811115611d1b57611d1a61155b565b5b611d2788828901611678565b935050606086013567ffffffffffffffff811115611d4857611d4761155b565b5b611d5488828901611678565b925050608086013567ffffffffffffffff811115611d7557611d7461155b565b5b611d8188828901611678565b9150509295509295909350565b600061010083016000830151611da76000860182611728565b5060208301518482036020860152611dbf8282611786565b91505060408301518482036040860152611dd98282611786565b9150506060830151611dee6060860182611728565b5060808301518482036080860152611e068282611786565b91505060a083015184820360a0860152611e208282611786565b91505060c083015184820360c0860152611e3a8282611851565b91505060e0830151611e4f60e08601826117f1565b508091505092915050565b60006020820190508181036000830152611e748184611d8e565b905092915050565b7f4e487b7100000000000000000000000000000000000000000000000000000000600052601160045260246000fd5b6000611eb68261171e565b9150611ec18361171e565b9250827fffffffffffffffffffffffffffffffffffffffffffffffffffffffffffffffff03821115611ef657611ef5611e7c565b5b828201905092915050565b7f4e487b7100000000000000000000000000000000000000000000000000000000600052602260045260246000fd5b60006002820490506001821680611f4857607f821691505b602082108103611f5b57611f5a611f01565b5b50919050565b7f4e487b7100000000000000000000000000000000000000000000000000000000600052603260045260246000fd5b6000611f9b8261171e565b91507fffffffffffffffffffffffffffffffffffffffffffffffffffffffffffffffff8203611fcd57611fcc611e7c565b5b600182019050919050565b6000611fe38261171e565b9150611fee8361171e565b92508282101561200157612000611e7c565b5b828203905092915050565b7f4e487b7100000000000000000000000000000000000000000000000000000000600052603160045260246000fdfea2646970667358221220d0a4bd55f9e999f731f818662b9e9a66aa720a037af56baa14edbe5da76c677064736f6c634300080d0033",
  "immutableReferences": {},
  "source": "pragma solidity ^0.8.0;\n\ncontract Pets {\n    struct Pet {\n        uint id;\n        string name;\n        string img_hash;\n        uint age;\n        string breed;\n        string location;\n        uint[] likes;\n        address adopter;\n    }\n\n    struct User {\n        uint id;\n        string username;\n        string email;\n        address account_number;\n        uint[] liked;\n        bool created;\n    }\n    \n    mapping(uint => Pet) allpets;\n    mapping(address => User) allusers;\n\n    uint pet_counter;\n    uint user_counter;\n\n\n    function checkUser() public view returns (bool) {\n        User storage user = allusers[msg.sender];\n        return user.created;\n    }\n\n    function getUser() public view returns (User memory) {\n        User storage user = allusers[msg.sender];\n        User memory memo_user = User(user.id, user.username, user.email, user.account_number, user.liked, user.created);\n        return memo_user;\n    }\n\n    function registerUser(string memory username, string memory email) public returns (User memory) {\n        User storage user = allusers[msg.sender];\n        user.username = username;\n        user.email = email;\n        user.id = user_counter;\n        user.account_number = msg.sender;\n        user.created = true;\n        user_counter = user_counter + 1;\n        User memory memo_user = User(user.id, user.username, user.email, user.account_number, user.liked, user.created);\n        return memo_user;\n\n\n    }\n\n\n    function getPets() public view returns (Pet[] memory) {\n        Pet[] memory ret = new Pet[](pet_counter);\n        for (uint i = 0; i < pet_counter; i++) {\n            ret[i] = allpets[i];\n        }\n        return ret;\n    }\n\n    function addPet(uint age, string memory name, string memory img_hash, string memory breed, string memory location) public returns (Pet memory) {\n        Pet storage p = allpets[pet_counter];\n        p.id = pet_counter;\n        p.name = name;\n        p.img_hash = img_hash;\n        p.age = age;\n        p.breed = breed;\n        p.location = location;\n        p.adopter = address(0);\n        pet_counter = pet_counter + 1;\n        Pet memory ret = Pet(p.id, p.name, p.img_hash, p.age, p.breed, p.location, p.likes, p.adopter);\n        return ret;\n    }\n\n    function adopt(uint id) public returns (uint, address) {\n        Pet storage p = allpets[id];\n        p.adopter = msg.sender;\n        return (p.id, p.adopter);\n    }\n\n    function likePet(uint petid) public returns (uint[] memory, uint[] memory) {\n        User storage u = allusers[msg.sender];\n        Pet storage p = allpets[petid];\n        u.liked.push(p.id);\n        p.likes.push(u.id);        \n        return (u.liked, p.likes);\n    }\n\n    function dislikePet(uint petid) public returns (uint[] memory, uint[] memory) {\n        User storage u = allusers[msg.sender];\n        Pet storage p = allpets[petid];\n        \n        uint delete_idx;\n\n        for (uint i = 0; i < u.liked.length; i++) {\n            if (u.liked[i] == petid) {\n                delete_idx = i;\n                break;\n            }\n        }\n        u.liked[delete_idx] = u.liked[u.liked.length - 1];\n        u.liked.pop();\n\n        for (uint i = 0; i < p.likes.length; i++) {\n            if (p.likes[i] == u.id) {\n                delete_idx = i;\n                break;\n            }\n        }\n        p.likes[delete_idx] = p.likes[p.likes.length - 1];\n        p.likes.pop();\n   \n        return (u.liked, p.likes);\n    }\n\n}",
  "sourcePath": "/Users/chuntungchu/Documents/ece-meng/aps1050/APS1050_project/solidity/contracts/Pets.sol",
  "compiler": {
    "name": "solc",
    "version": "0.8.13+commit.abaa5c0e.Emscripten.clang"
  },
  "schemaVersion": "3.4.6",
  "updatedAt": "2022-04-13T21:38:14.412Z",
  "networkType": "ethereum",
  "devdoc": {
    "kind": "dev",
    "methods": {},
    "version": 1
  },
  "userdoc": {
    "kind": "user",
    "methods": {},
    "version": 1
  }
}