{
  "contractName": "Pets",
  "abi": [
    {
      "inputs": [],
      "name": "checkUser",
      "outputs": [
        {
          "internalType": "bool",
          "name": "",
          "type": "bool"
        }
      ],
      "stateMutability": "view",
      "type": "function",
      "constant": true
    },
    {
      "inputs": [
        {
          "internalType": "string",
          "name": "username",
          "type": "string"
        },
        {
          "internalType": "string",
          "name": "email",
          "type": "string"
        }
      ],
      "name": "registerUser",
      "outputs": [
        {
          "components": [
            {
              "internalType": "uint256",
              "name": "id",
              "type": "uint256"
            },
            {
              "internalType": "string",
              "name": "username",
              "type": "string"
            },
            {
              "internalType": "string",
              "name": "email",
              "type": "string"
            },
            {
              "internalType": "address",
              "name": "account_number",
              "type": "address"
            },
            {
              "internalType": "uint256[]",
              "name": "liked",
              "type": "uint256[]"
            },
            {
              "internalType": "bool",
              "name": "created",
              "type": "bool"
            }
          ],
          "internalType": "struct Pets.User",
          "name": "",
          "type": "tuple"
        }
      ],
      "stateMutability": "nonpayable",
      "type": "function"
    },
    {
      "inputs": [],
      "name": "getPets",
      "outputs": [
        {
          "components": [
            {
              "internalType": "uint256",
              "name": "id",
              "type": "uint256"
            },
            {
              "internalType": "string",
              "name": "name",
              "type": "string"
            },
            {
              "internalType": "string",
              "name": "img_hash",
              "type": "string"
            },
            {
              "internalType": "uint256",
              "name": "age",
              "type": "uint256"
            },
            {
              "internalType": "string",
              "name": "breed",
              "type": "string"
            },
            {
              "internalType": "string",
              "name": "location",
              "type": "string"
            },
            {
              "internalType": "address",
              "name": "adopter",
              "type": "address"
            }
          ],
          "internalType": "struct Pets.Pet[]",
          "name": "",
          "type": "tuple[]"
        }
      ],
      "stateMutability": "view",
      "type": "function",
      "constant": true
    },
    {
      "inputs": [
        {
          "internalType": "uint256",
          "name": "age",
          "type": "uint256"
        },
        {
          "internalType": "string",
          "name": "name",
          "type": "string"
        },
        {
          "internalType": "string",
          "name": "img_hash",
          "type": "string"
        },
        {
          "internalType": "string",
          "name": "breed",
          "type": "string"
        },
        {
          "internalType": "string",
          "name": "location",
          "type": "string"
        }
      ],
      "name": "addPet",
      "outputs": [
        {
          "components": [
            {
              "internalType": "uint256",
              "name": "id",
              "type": "uint256"
            },
            {
              "internalType": "string",
              "name": "name",
              "type": "string"
            },
            {
              "internalType": "string",
              "name": "img_hash",
              "type": "string"
            },
            {
              "internalType": "uint256",
              "name": "age",
              "type": "uint256"
            },
            {
              "internalType": "string",
              "name": "breed",
              "type": "string"
            },
            {
              "internalType": "string",
              "name": "location",
              "type": "string"
            },
            {
              "internalType": "address",
              "name": "adopter",
              "type": "address"
            }
          ],
          "internalType": "struct Pets.Pet",
          "name": "",
          "type": "tuple"
        }
      ],
      "stateMutability": "nonpayable",
      "type": "function"
    },
    {
      "inputs": [
        {
          "internalType": "uint256",
          "name": "id",
          "type": "uint256"
        }
      ],
      "name": "adopt",
      "outputs": [
        {
          "internalType": "uint256",
          "name": "",
          "type": "uint256"
        },
        {
          "internalType": "address",
          "name": "",
          "type": "address"
        }
      ],
      "stateMutability": "nonpayable",
      "type": "function"
    }
  ],
  "bytecode": "0x608060405234801561001057600080fd5b50611761806100206000396000f3fe608060405234801561001057600080fd5b50600436106100575760003560e01c80631d2e4afd1461005c5780636d71ad381461008c5780638588b2c5146100aa578063c1562547146100db578063eb697ebc146100f9575b600080fd5b61007660048036038101906100719190610ed5565b610129565b6040516100839190611190565b60405180910390f35b610094610432565b6040516100a19190611325565b60405180910390f35b6100c460048036038101906100bf9190611373565b6107a3565b6040516100d29291906113be565b60405180910390f35b6100e3610833565b6040516100f091906113f6565b60405180910390f35b610113600480360381019061010e9190611411565b61088f565b60405161012091906115ad565b60405180910390f35b610131610c37565b6000600160003373ffffffffffffffffffffffffffffffffffffffff1673ffffffffffffffffffffffffffffffffffffffff16815260200190815260200160002090508381600101908051906020019061018c929190610c85565b50828160020190805190602001906101a5929190610c85565b506003548160000181905550338160030160006101000a81548173ffffffffffffffffffffffffffffffffffffffff021916908373ffffffffffffffffffffffffffffffffffffffff16021790555060018160050160006101000a81548160ff021916908315150217905550600160035461022091906115fe565b600381905550806040518060c00160405290816000820154815260200160018201805461024c90611683565b80601f016020809104026020016040519081016040528092919081815260200182805461027890611683565b80156102c55780601f1061029a576101008083540402835291602001916102c5565b820191906000526020600020905b8154815290600101906020018083116102a857829003601f168201915b505050505081526020016002820180546102de90611683565b80601f016020809104026020016040519081016040528092919081815260200182805461030a90611683565b80156103575780601f1061032c57610100808354040283529160200191610357565b820191906000526020600020905b81548152906001019060200180831161033a57829003601f168201915b505050505081526020016003820160009054906101000a900473ffffffffffffffffffffffffffffffffffffffff1673ffffffffffffffffffffffffffffffffffffffff1673ffffffffffffffffffffffffffffffffffffffff1681526020016004820180548060200260200160405190810160405280929190818152602001828054801561040557602002820191906000526020600020905b8154815260200190600101908083116103f1575b505050505081526020016005820160009054906101000a900460ff16151515158152505091505092915050565b6060600060025467ffffffffffffffff81111561045257610451610daa565b5b60405190808252806020026020018201604052801561048b57816020015b610478610d0b565b8152602001906001900390816104705790505b50905060005b60025481101561079b576000808281526020019081526020016000206040518060e0016040529081600082015481526020016001820180546104d290611683565b80601f01602080910402602001604051908101604052809291908181526020018280546104fe90611683565b801561054b5780601f106105205761010080835404028352916020019161054b565b820191906000526020600020905b81548152906001019060200180831161052e57829003601f168201915b5050505050815260200160028201805461056490611683565b80601f016020809104026020016040519081016040528092919081815260200182805461059090611683565b80156105dd5780601f106105b2576101008083540402835291602001916105dd565b820191906000526020600020905b8154815290600101906020018083116105c057829003601f168201915b505050505081526020016003820154815260200160048201805461060090611683565b80601f016020809104026020016040519081016040528092919081815260200182805461062c90611683565b80156106795780601f1061064e57610100808354040283529160200191610679565b820191906000526020600020905b81548152906001019060200180831161065c57829003601f168201915b5050505050815260200160058201805461069290611683565b80601f01602080910402602001604051908101604052809291908181526020018280546106be90611683565b801561070b5780601f106106e05761010080835404028352916020019161070b565b820191906000526020600020905b8154815290600101906020018083116106ee57829003601f168201915b505050505081526020016006820160009054906101000a900473ffffffffffffffffffffffffffffffffffffffff1673ffffffffffffffffffffffffffffffffffffffff1673ffffffffffffffffffffffffffffffffffffffff168152505082828151811061077d5761077c6116b4565b5b60200260200101819052508080610793906116e3565b915050610491565b508091505090565b60008060008060008581526020019081526020016000209050338160060160006101000a81548173ffffffffffffffffffffffffffffffffffffffff021916908373ffffffffffffffffffffffffffffffffffffffff16021790555080600001548160060160009054906101000a900473ffffffffffffffffffffffffffffffffffffffff169250925050915091565b600080600160003373ffffffffffffffffffffffffffffffffffffffff1673ffffffffffffffffffffffffffffffffffffffff16815260200190815260200160002090508060050160009054906101000a900460ff1691505090565b610897610d0b565b6000806000600254815260200190815260200160002090506002548160000181905550858160010190805190602001906108d2929190610c85565b50848160020190805190602001906108eb929190610c85565b508681600301819055508381600401908051906020019061090d929190610c85565b5082816005019080519060200190610926929190610c85565b5060008160060160006101000a81548173ffffffffffffffffffffffffffffffffffffffff021916908373ffffffffffffffffffffffffffffffffffffffff160217905550600160025461097a91906115fe565b60028190555060006040518060e00160405280836000015481526020018360010180546109a690611683565b80601f01602080910402602001604051908101604052809291908181526020018280546109d290611683565b8015610a1f5780601f106109f457610100808354040283529160200191610a1f565b820191906000526020600020905b815481529060010190602001808311610a0257829003601f168201915b50505050508152602001836002018054610a3890611683565b80601f0160208091040260200160405190810160405280929190818152602001828054610a6490611683565b8015610ab15780601f10610a8657610100808354040283529160200191610ab1565b820191906000526020600020905b815481529060010190602001808311610a9457829003601f168201915b5050505050815260200183600301548152602001836004018054610ad490611683565b80601f0160208091040260200160405190810160405280929190818152602001828054610b0090611683565b8015610b4d5780601f10610b2257610100808354040283529160200191610b4d565b820191906000526020600020905b815481529060010190602001808311610b3057829003601f168201915b50505050508152602001836005018054610b6690611683565b80601f0160208091040260200160405190810160405280929190818152602001828054610b9290611683565b8015610bdf5780601f10610bb457610100808354040283529160200191610bdf565b820191906000526020600020905b815481529060010190602001808311610bc257829003601f168201915b505050505081526020018360060160009054906101000a900473ffffffffffffffffffffffffffffffffffffffff1673ffffffffffffffffffffffffffffffffffffffff168152509050809250505095945050505050565b6040518060c00160405280600081526020016060815260200160608152602001600073ffffffffffffffffffffffffffffffffffffffff168152602001606081526020016000151581525090565b828054610c9190611683565b90600052602060002090601f016020900481019282610cb35760008555610cfa565b82601f10610ccc57805160ff1916838001178555610cfa565b82800160010185558215610cfa579182015b82811115610cf9578251825591602001919060010190610cde565b5b509050610d079190610d5e565b5090565b6040518060e00160405280600081526020016060815260200160608152602001600081526020016060815260200160608152602001600073ffffffffffffffffffffffffffffffffffffffff1681525090565b5b80821115610d77576000816000905550600101610d5f565b5090565b6000604051905090565b600080fd5b600080fd5b600080fd5b600080fd5b6000601f19601f8301169050919050565b7f4e487b7100000000000000000000000000000000000000000000000000000000600052604160045260246000fd5b610de282610d99565b810181811067ffffffffffffffff82111715610e0157610e00610daa565b5b80604052505050565b6000610e14610d7b565b9050610e208282610dd9565b919050565b600067ffffffffffffffff821115610e4057610e3f610daa565b5b610e4982610d99565b9050602081019050919050565b82818337600083830152505050565b6000610e78610e7384610e25565b610e0a565b905082815260208101848484011115610e9457610e93610d94565b5b610e9f848285610e56565b509392505050565b600082601f830112610ebc57610ebb610d8f565b5b8135610ecc848260208601610e65565b91505092915050565b60008060408385031215610eec57610eeb610d85565b5b600083013567ffffffffffffffff811115610f0a57610f09610d8a565b5b610f1685828601610ea7565b925050602083013567ffffffffffffffff811115610f3757610f36610d8a565b5b610f4385828601610ea7565b9150509250929050565b6000819050919050565b610f6081610f4d565b82525050565b600081519050919050565b600082825260208201905092915050565b60005b83811015610fa0578082015181840152602081019050610f85565b83811115610faf576000848401525b50505050565b6000610fc082610f66565b610fca8185610f71565b9350610fda818560208601610f82565b610fe381610d99565b840191505092915050565b600073ffffffffffffffffffffffffffffffffffffffff82169050919050565b600061101982610fee565b9050919050565b6110298161100e565b82525050565b600081519050919050565b600082825260208201905092915050565b6000819050602082019050919050565b60006110678383610f57565b60208301905092915050565b6000602082019050919050565b600061108b8261102f565b611095818561103a565b93506110a08361104b565b8060005b838110156110d15781516110b8888261105b565b97506110c383611073565b9250506001810190506110a4565b5085935050505092915050565b60008115159050919050565b6110f3816110de565b82525050565b600060c0830160008301516111116000860182610f57565b50602083015184820360208601526111298282610fb5565b915050604083015184820360408601526111438282610fb5565b91505060608301516111586060860182611020565b50608083015184820360808601526111708282611080565b91505060a083015161118560a08601826110ea565b508091505092915050565b600060208201905081810360008301526111aa81846110f9565b905092915050565b600081519050919050565b600082825260208201905092915050565b6000819050602082019050919050565b600060e0830160008301516111f66000860182610f57565b506020830151848203602086015261120e8282610fb5565b915050604083015184820360408601526112288282610fb5565b915050606083015161123d6060860182610f57565b50608083015184820360808601526112558282610fb5565b91505060a083015184820360a086015261126f8282610fb5565b91505060c083015161128460c0860182611020565b508091505092915050565b600061129b83836111de565b905092915050565b6000602082019050919050565b60006112bb826111b2565b6112c581856111bd565b9350836020820285016112d7856111ce565b8060005b8581101561131357848403895281516112f4858261128f565b94506112ff836112a3565b925060208a019950506001810190506112db565b50829750879550505050505092915050565b6000602082019050818103600083015261133f81846112b0565b905092915050565b61135081610f4d565b811461135b57600080fd5b50565b60008135905061136d81611347565b92915050565b60006020828403121561138957611388610d85565b5b60006113978482850161135e565b91505092915050565b6113a981610f4d565b82525050565b6113b88161100e565b82525050565b60006040820190506113d360008301856113a0565b6113e060208301846113af565b9392505050565b6113f0816110de565b82525050565b600060208201905061140b60008301846113e7565b92915050565b600080600080600060a0868803121561142d5761142c610d85565b5b600061143b8882890161135e565b955050602086013567ffffffffffffffff81111561145c5761145b610d8a565b5b61146888828901610ea7565b945050604086013567ffffffffffffffff81111561148957611488610d8a565b5b61149588828901610ea7565b935050606086013567ffffffffffffffff8111156114b6576114b5610d8a565b5b6114c288828901610ea7565b925050608086013567ffffffffffffffff8111156114e3576114e2610d8a565b5b6114ef88828901610ea7565b9150509295509295909350565b600060e0830160008301516115146000860182610f57565b506020830151848203602086015261152c8282610fb5565b915050604083015184820360408601526115468282610fb5565b915050606083015161155b6060860182610f57565b50608083015184820360808601526115738282610fb5565b91505060a083015184820360a086015261158d8282610fb5565b91505060c08301516115a260c0860182611020565b508091505092915050565b600060208201905081810360008301526115c781846114fc565b905092915050565b7f4e487b7100000000000000000000000000000000000000000000000000000000600052601160045260246000fd5b600061160982610f4d565b915061161483610f4d565b9250827fffffffffffffffffffffffffffffffffffffffffffffffffffffffffffffffff03821115611649576116486115cf565b5b828201905092915050565b7f4e487b7100000000000000000000000000000000000000000000000000000000600052602260045260246000fd5b6000600282049050600182168061169b57607f821691505b6020821081036116ae576116ad611654565b5b50919050565b7f4e487b7100000000000000000000000000000000000000000000000000000000600052603260045260246000fd5b60006116ee82610f4d565b91507fffffffffffffffffffffffffffffffffffffffffffffffffffffffffffffffff82036117205761171f6115cf565b5b60018201905091905056fea2646970667358221220806837039eb9877db0258387fbc9c2708acf559d888fd5a98ee825aa7517bcd564736f6c634300080d0033",
  "immutableReferences": {},
  "source": "pragma solidity ^0.8.0;\n\ncontract Pets {\n    struct Pet {\n        uint id;\n        string name;\n        string img_hash;\n        uint age;\n        string breed;\n        string location;\n        address adopter;\n    }\n\n    struct User {\n        uint id;\n        string username;\n        string email;\n        address account_number;\n        uint[] liked;\n        bool created;\n    }\n    \n    mapping(uint => Pet) allpets;\n    mapping(address => User) allusers;\n\n    uint pet_counter;\n    uint user_counter;\n\n\n    function checkUser() public view returns (bool) {\n        User storage user = allusers[msg.sender];\n        return user.created;\n    }\n\n    function registerUser(string memory username, string memory email) public returns (User memory) {\n        User storage user = allusers[msg.sender];\n        user.username = username;\n        user.email = email;\n        user.id = user_counter;\n        user.account_number = msg.sender;\n        user.created = true;\n        user_counter = user_counter + 1;\n\n        return user;\n    }\n\n\n    function getPets() public view returns (Pet[] memory) {\n        Pet[] memory ret = new Pet[](pet_counter);\n        for (uint i = 0; i < pet_counter; i++) {\n            ret[i] = allpets[i];\n        }\n        return ret;\n    }\n\n    function addPet(uint age, string memory name, string memory img_hash, string memory breed, string memory location) public returns (Pet memory) {\n        Pet storage p = allpets[pet_counter];\n        p.id = pet_counter;\n        p.name = name;\n        p.img_hash = img_hash;\n        p.age = age;\n        p.breed = breed;\n        p.location = location;\n        p.adopter = address(0);\n        pet_counter = pet_counter + 1;\n        Pet memory ret = Pet(p.id, p.name, p.img_hash, p.age, p.breed, p.location, p.adopter);\n        return ret;\n    }\n\n    function adopt(uint id) public returns (uint, address) {\n        Pet storage p = allpets[id];\n        p.adopter = msg.sender;\n        return (p.id, p.adopter);\n    }\n\n}",
  "sourcePath": "/Users/chuntungchu/Documents/ece-meng/aps1050/APS1050_project/solidity/contracts/Pets.sol",
  "compiler": {
    "name": "solc",
    "version": "0.8.13+commit.abaa5c0e.Emscripten.clang"
  },
  "schemaVersion": "3.4.6",
  "updatedAt": "2022-04-13T00:48:38.000Z",
  "networkType": "ethereum",
  "devdoc": {
    "kind": "dev",
    "methods": {},
    "version": 1
  },
  "userdoc": {
    "kind": "user",
    "methods": {},
    "version": 1
  }
}