{
  "contractName": "Pets",
  "abi": [
    {
      "inputs": [],
      "name": "checkUser",
      "outputs": [
        {
          "internalType": "bool",
          "name": "",
          "type": "bool"
        }
      ],
      "stateMutability": "view",
      "type": "function",
      "constant": true
    },
    {
      "inputs": [
        {
          "internalType": "address",
          "name": "useraddress",
          "type": "address"
        }
      ],
      "name": "getUser",
      "outputs": [
        {
          "components": [
            {
              "internalType": "uint256",
              "name": "id",
              "type": "uint256"
            },
            {
              "internalType": "string",
              "name": "username",
              "type": "string"
            },
            {
              "internalType": "string",
              "name": "email",
              "type": "string"
            },
            {
              "internalType": "address",
              "name": "account_number",
              "type": "address"
            },
            {
              "internalType": "uint256[]",
              "name": "liked",
              "type": "uint256[]"
            },
            {
              "internalType": "bool",
              "name": "created",
              "type": "bool"
            }
          ],
          "internalType": "struct Pets.User",
          "name": "",
          "type": "tuple"
        }
      ],
      "stateMutability": "view",
      "type": "function",
      "constant": true
    },
    {
      "inputs": [
        {
          "internalType": "string",
          "name": "username",
          "type": "string"
        },
        {
          "internalType": "string",
          "name": "email",
          "type": "string"
        }
      ],
      "name": "registerUser",
      "outputs": [
        {
          "components": [
            {
              "internalType": "uint256",
              "name": "id",
              "type": "uint256"
            },
            {
              "internalType": "string",
              "name": "username",
              "type": "string"
            },
            {
              "internalType": "string",
              "name": "email",
              "type": "string"
            },
            {
              "internalType": "address",
              "name": "account_number",
              "type": "address"
            },
            {
              "internalType": "uint256[]",
              "name": "liked",
              "type": "uint256[]"
            },
            {
              "internalType": "bool",
              "name": "created",
              "type": "bool"
            }
          ],
          "internalType": "struct Pets.User",
          "name": "",
          "type": "tuple"
        }
      ],
      "stateMutability": "nonpayable",
      "type": "function"
    },
    {
      "inputs": [],
      "name": "getPets",
      "outputs": [
        {
          "components": [
            {
              "internalType": "uint256",
              "name": "id",
              "type": "uint256"
            },
            {
              "internalType": "string",
              "name": "name",
              "type": "string"
            },
            {
              "internalType": "string",
              "name": "img_hash",
              "type": "string"
            },
            {
              "internalType": "int256",
              "name": "age",
              "type": "int256"
            },
            {
              "internalType": "string",
              "name": "breed",
              "type": "string"
            },
            {
              "internalType": "string",
              "name": "location",
              "type": "string"
            },
            {
              "internalType": "uint256[]",
              "name": "likes",
              "type": "uint256[]"
            },
            {
              "internalType": "address",
              "name": "adopter",
              "type": "address"
            }
          ],
          "internalType": "struct Pets.Pet[]",
          "name": "",
          "type": "tuple[]"
        }
      ],
      "stateMutability": "view",
      "type": "function",
      "constant": true
    },
    {
      "inputs": [
        {
          "internalType": "string",
          "name": "a",
          "type": "string"
        },
        {
          "internalType": "string",
          "name": "b",
          "type": "string"
        }
      ],
      "name": "compareStrings",
      "outputs": [
        {
          "internalType": "bool",
          "name": "",
          "type": "bool"
        }
      ],
      "stateMutability": "view",
      "type": "function",
      "constant": true
    },
    {
      "inputs": [
        {
          "internalType": "string",
          "name": "breed",
          "type": "string"
        },
        {
          "internalType": "int256",
          "name": "age",
          "type": "int256"
        }
      ],
      "name": "getSelectedPets",
      "outputs": [
        {
          "components": [
            {
              "internalType": "uint256",
              "name": "id",
              "type": "uint256"
            },
            {
              "internalType": "string",
              "name": "name",
              "type": "string"
            },
            {
              "internalType": "string",
              "name": "img_hash",
              "type": "string"
            },
            {
              "internalType": "int256",
              "name": "age",
              "type": "int256"
            },
            {
              "internalType": "string",
              "name": "breed",
              "type": "string"
            },
            {
              "internalType": "string",
              "name": "location",
              "type": "string"
            },
            {
              "internalType": "uint256[]",
              "name": "likes",
              "type": "uint256[]"
            },
            {
              "internalType": "address",
              "name": "adopter",
              "type": "address"
            }
          ],
          "internalType": "struct Pets.Pet[]",
          "name": "",
          "type": "tuple[]"
        }
      ],
      "stateMutability": "view",
      "type": "function",
      "constant": true
    },
    {
      "inputs": [
        {
          "internalType": "int256",
          "name": "age",
          "type": "int256"
        },
        {
          "internalType": "string",
          "name": "name",
          "type": "string"
        },
        {
          "internalType": "string",
          "name": "img_hash",
          "type": "string"
        },
        {
          "internalType": "string",
          "name": "breed",
          "type": "string"
        },
        {
          "internalType": "string",
          "name": "location",
          "type": "string"
        }
      ],
      "name": "addPet",
      "outputs": [
        {
          "components": [
            {
              "internalType": "uint256",
              "name": "id",
              "type": "uint256"
            },
            {
              "internalType": "string",
              "name": "name",
              "type": "string"
            },
            {
              "internalType": "string",
              "name": "img_hash",
              "type": "string"
            },
            {
              "internalType": "int256",
              "name": "age",
              "type": "int256"
            },
            {
              "internalType": "string",
              "name": "breed",
              "type": "string"
            },
            {
              "internalType": "string",
              "name": "location",
              "type": "string"
            },
            {
              "internalType": "uint256[]",
              "name": "likes",
              "type": "uint256[]"
            },
            {
              "internalType": "address",
              "name": "adopter",
              "type": "address"
            }
          ],
          "internalType": "struct Pets.Pet",
          "name": "",
          "type": "tuple"
        }
      ],
      "stateMutability": "nonpayable",
      "type": "function"
    },
    {
      "inputs": [
        {
          "internalType": "uint256",
          "name": "id",
          "type": "uint256"
        }
      ],
      "name": "adopt",
      "outputs": [
        {
          "internalType": "uint256",
          "name": "",
          "type": "uint256"
        },
        {
          "internalType": "address",
          "name": "",
          "type": "address"
        }
      ],
      "stateMutability": "nonpayable",
      "type": "function"
    },
    {
      "inputs": [
        {
          "internalType": "uint256",
          "name": "petid",
          "type": "uint256"
        }
      ],
      "name": "likePet",
      "outputs": [
        {
          "components": [
            {
              "internalType": "uint256",
              "name": "id",
              "type": "uint256"
            },
            {
              "internalType": "string",
              "name": "username",
              "type": "string"
            },
            {
              "internalType": "string",
              "name": "email",
              "type": "string"
            },
            {
              "internalType": "address",
              "name": "account_number",
              "type": "address"
            },
            {
              "internalType": "uint256[]",
              "name": "liked",
              "type": "uint256[]"
            },
            {
              "internalType": "bool",
              "name": "created",
              "type": "bool"
            }
          ],
          "internalType": "struct Pets.User",
          "name": "",
          "type": "tuple"
        },
        {
          "components": [
            {
              "internalType": "uint256",
              "name": "id",
              "type": "uint256"
            },
            {
              "internalType": "string",
              "name": "name",
              "type": "string"
            },
            {
              "internalType": "string",
              "name": "img_hash",
              "type": "string"
            },
            {
              "internalType": "int256",
              "name": "age",
              "type": "int256"
            },
            {
              "internalType": "string",
              "name": "breed",
              "type": "string"
            },
            {
              "internalType": "string",
              "name": "location",
              "type": "string"
            },
            {
              "internalType": "uint256[]",
              "name": "likes",
              "type": "uint256[]"
            },
            {
              "internalType": "address",
              "name": "adopter",
              "type": "address"
            }
          ],
          "internalType": "struct Pets.Pet",
          "name": "",
          "type": "tuple"
        }
      ],
      "stateMutability": "nonpayable",
      "type": "function"
    },
    {
      "inputs": [
        {
          "internalType": "uint256",
          "name": "petid",
          "type": "uint256"
        }
      ],
      "name": "dislikePet",
      "outputs": [
        {
          "components": [
            {
              "internalType": "uint256",
              "name": "id",
              "type": "uint256"
            },
            {
              "internalType": "string",
              "name": "username",
              "type": "string"
            },
            {
              "internalType": "string",
              "name": "email",
              "type": "string"
            },
            {
              "internalType": "address",
              "name": "account_number",
              "type": "address"
            },
            {
              "internalType": "uint256[]",
              "name": "liked",
              "type": "uint256[]"
            },
            {
              "internalType": "bool",
              "name": "created",
              "type": "bool"
            }
          ],
          "internalType": "struct Pets.User",
          "name": "",
          "type": "tuple"
        },
        {
          "components": [
            {
              "internalType": "uint256",
              "name": "id",
              "type": "uint256"
            },
            {
              "internalType": "string",
              "name": "name",
              "type": "string"
            },
            {
              "internalType": "string",
              "name": "img_hash",
              "type": "string"
            },
            {
              "internalType": "int256",
              "name": "age",
              "type": "int256"
            },
            {
              "internalType": "string",
              "name": "breed",
              "type": "string"
            },
            {
              "internalType": "string",
              "name": "location",
              "type": "string"
            },
            {
              "internalType": "uint256[]",
              "name": "likes",
              "type": "uint256[]"
            },
            {
              "internalType": "address",
              "name": "adopter",
              "type": "address"
            }
          ],
          "internalType": "struct Pets.Pet",
          "name": "",
          "type": "tuple"
        }
      ],
      "stateMutability": "nonpayable",
      "type": "function"
    }
  ],
  "bytecode": "0x608060405234801561001057600080fd5b506132cb806100206000396000f3fe608060405234801561001057600080fd5b506004361061009e5760003560e01c80638588b2c5116100665780638588b2c5146101825780639f260745146101b3578063bed34bba146101e3578063c156254714610213578063de440fe9146102315761009e565b80630681e528146100a35780631d2e4afd146100d357806339df1b10146101035780636d71ad38146101345780636f77926b14610152575b600080fd5b6100bd60048036038101906100b89190612858565b610262565b6040516100ca9190612be2565b60405180910390f35b6100ed60048036038101906100e89190612c04565b610a55565b6040516100fa9190612d2e565b60405180910390f35b61011d60048036038101906101189190612d7c565b610d49565b60405161012b929190612e75565b60405180910390f35b61013c611467565b6040516101499190612be2565b60405180910390f35b61016c60048036038101906101679190612ed8565b611831565b6040516101799190612d2e565b60405180910390f35b61019c60048036038101906101979190612d7c565b611a72565b6040516101aa929190612f23565b60405180910390f35b6101cd60048036038101906101c89190612f4c565b611b02565b6040516101da9190613037565b60405180910390f35b6101fd60048036038101906101f89190612c04565b611f03565b60405161020a9190613068565b60405180910390f35b61021b611f5c565b6040516102289190613068565b60405180910390f35b61024b60048036038101906102469190612d7c565b611fb8565b604051610259929190612e75565b60405180910390f35b60606000805b60025481101561061a57600080600083815260200190815260200160002060405180610100016040529081600082015481526020016001820180546102ac906130b2565b80601f01602080910402602001604051908101604052809291908181526020018280546102d8906130b2565b80156103255780601f106102fa57610100808354040283529160200191610325565b820191906000526020600020905b81548152906001019060200180831161030857829003601f168201915b5050505050815260200160028201805461033e906130b2565b80601f016020809104026020016040519081016040528092919081815260200182805461036a906130b2565b80156103b75780601f1061038c576101008083540402835291602001916103b7565b820191906000526020600020905b81548152906001019060200180831161039a57829003601f168201915b50505050508152602001600382015481526020016004820180546103da906130b2565b80601f0160208091040260200160405190810160405280929190818152602001828054610406906130b2565b80156104535780601f1061042857610100808354040283529160200191610453565b820191906000526020600020905b81548152906001019060200180831161043657829003601f168201915b5050505050815260200160058201805461046c906130b2565b80601f0160208091040260200160405190810160405280929190818152602001828054610498906130b2565b80156104e55780601f106104ba576101008083540402835291602001916104e5565b820191906000526020600020905b8154815290600101906020018083116104c857829003601f168201915b505050505081526020016006820180548060200260200160405190810160405280929190818152602001828054801561053d57602002820191906000526020600020905b815481526020019060010190808311610529575b505050505081526020016007820160009054906101000a900473ffffffffffffffffffffffffffffffffffffffff1673ffffffffffffffffffffffffffffffffffffffff1673ffffffffffffffffffffffffffffffffffffffff168152505090506000865114806105b857506105b7816080015187611f03565b5b80156105f157507fffffffffffffffffffffffffffffffffffffffffffffffffffffffffffffffff8514806105f05750848160600151145b5b15610606576001836106039190613112565b92505b50808061061290613168565b915050610268565b5060008167ffffffffffffffff811115610637576106366126f7565b5b60405190808252806020026020018201604052801561067057816020015b61065d61257c565b8152602001906001900390816106555790505b5090506000805b600254811015610a4857600080600083815260200190815260200160002060405180610100016040529081600082015481526020016001820180546106bb906130b2565b80601f01602080910402602001604051908101604052809291908181526020018280546106e7906130b2565b80156107345780601f1061070957610100808354040283529160200191610734565b820191906000526020600020905b81548152906001019060200180831161071757829003601f168201915b5050505050815260200160028201805461074d906130b2565b80601f0160208091040260200160405190810160405280929190818152602001828054610779906130b2565b80156107c65780601f1061079b576101008083540402835291602001916107c6565b820191906000526020600020905b8154815290600101906020018083116107a957829003601f168201915b50505050508152602001600382015481526020016004820180546107e9906130b2565b80601f0160208091040260200160405190810160405280929190818152602001828054610815906130b2565b80156108625780601f1061083757610100808354040283529160200191610862565b820191906000526020600020905b81548152906001019060200180831161084557829003601f168201915b5050505050815260200160058201805461087b906130b2565b80601f01602080910402602001604051908101604052809291908181526020018280546108a7906130b2565b80156108f45780601f106108c9576101008083540402835291602001916108f4565b820191906000526020600020905b8154815290600101906020018083116108d757829003601f168201915b505050505081526020016006820180548060200260200160405190810160405280929190818152602001828054801561094c57602002820191906000526020600020905b815481526020019060010190808311610938575b505050505081526020016007820160009054906101000a900473ffffffffffffffffffffffffffffffffffffffff1673ffffffffffffffffffffffffffffffffffffffff1673ffffffffffffffffffffffffffffffffffffffff168152505090506000885114806109c757506109c6816080015189611f03565b5b8015610a0057507fffffffffffffffffffffffffffffffffffffffffffffffffffffffffffffffff8714806109ff5750868160600151145b5b15610a345780848481518110610a1957610a186131b0565b5b6020026020010181905250600183610a319190613112565b92505b508080610a4090613168565b915050610677565b5081935050505092915050565b610a5d6125d7565b6000600160003373ffffffffffffffffffffffffffffffffffffffff1673ffffffffffffffffffffffffffffffffffffffff168152602001908152602001600020905083816001019080519060200190610ab8929190612625565b5082816002019080519060200190610ad1929190612625565b506003548160000181905550338160030160006101000a81548173ffffffffffffffffffffffffffffffffffffffff021916908373ffffffffffffffffffffffffffffffffffffffff16021790555060018160050160006101000a81548160ff0219169083151502179055506001600354610b4c9190613112565b60038190555060006040518060c0016040528083600001548152602001836001018054610b78906130b2565b80601f0160208091040260200160405190810160405280929190818152602001828054610ba4906130b2565b8015610bf15780601f10610bc657610100808354040283529160200191610bf1565b820191906000526020600020905b815481529060010190602001808311610bd457829003601f168201915b50505050508152602001836002018054610c0a906130b2565b80601f0160208091040260200160405190810160405280929190818152602001828054610c36906130b2565b8015610c835780601f10610c5857610100808354040283529160200191610c83565b820191906000526020600020905b815481529060010190602001808311610c6657829003601f168201915b505050505081526020018360030160009054906101000a900473ffffffffffffffffffffffffffffffffffffffff1673ffffffffffffffffffffffffffffffffffffffff16815260200183600401805480602002602001604051908101604052809291908181526020018280548015610d1b57602002820191906000526020600020905b815481526020019060010190808311610d07575b505050505081526020018360050160009054906101000a900460ff1615158152509050809250505092915050565b610d516125d7565b610d5961257c565b6000600160003373ffffffffffffffffffffffffffffffffffffffff1673ffffffffffffffffffffffffffffffffffffffff168152602001908152602001600020905060008060008681526020019081526020016000209050600080600090505b8360040180549050811015610e0b5786846004018281548110610de057610ddf6131b0565b5b906000526020600020015403610df857809150610e0b565b8080610e0390613168565b915050610dba565b508260040160018460040180549050610e2491906131df565b81548110610e3557610e346131b0565b5b9060005260206000200154836004018281548110610e5657610e556131b0565b5b906000526020600020018190555082600401805480610e7857610e77613213565b5b6001900381819060005260206000200160009055905560005b8260060180549050811015610ee6578360000154836006018281548110610ebb57610eba6131b0565b5b906000526020600020015403610ed357809150610ee6565b8080610ede90613168565b915050610e91565b508160060160018360060180549050610eff91906131df565b81548110610f1057610f0f6131b0565b5b9060005260206000200154826006018281548110610f3157610f306131b0565b5b906000526020600020018190555081600601805480610f5357610f52613213565b5b6001900381819060005260206000200160009055905560006040518060c0016040528085600001548152602001856001018054610f8f906130b2565b80601f0160208091040260200160405190810160405280929190818152602001828054610fbb906130b2565b80156110085780601f10610fdd57610100808354040283529160200191611008565b820191906000526020600020905b815481529060010190602001808311610feb57829003601f168201915b50505050508152602001856002018054611021906130b2565b80601f016020809104026020016040519081016040528092919081815260200182805461104d906130b2565b801561109a5780601f1061106f5761010080835404028352916020019161109a565b820191906000526020600020905b81548152906001019060200180831161107d57829003601f168201915b505050505081526020018560030160009054906101000a900473ffffffffffffffffffffffffffffffffffffffff1673ffffffffffffffffffffffffffffffffffffffff1681526020018560040180548060200260200160405190810160405280929190818152602001828054801561113257602002820191906000526020600020905b81548152602001906001019080831161111e575b505050505081526020018560050160009054906101000a900460ff161515815250905060006040518061010001604052808560000154815260200185600101805461117c906130b2565b80601f01602080910402602001604051908101604052809291908181526020018280546111a8906130b2565b80156111f55780601f106111ca576101008083540402835291602001916111f5565b820191906000526020600020905b8154815290600101906020018083116111d857829003601f168201915b5050505050815260200185600201805461120e906130b2565b80601f016020809104026020016040519081016040528092919081815260200182805461123a906130b2565b80156112875780601f1061125c57610100808354040283529160200191611287565b820191906000526020600020905b81548152906001019060200180831161126a57829003601f168201915b50505050508152602001856003015481526020018560040180546112aa906130b2565b80601f01602080910402602001604051908101604052809291908181526020018280546112d6906130b2565b80156113235780601f106112f857610100808354040283529160200191611323565b820191906000526020600020905b81548152906001019060200180831161130657829003601f168201915b5050505050815260200185600501805461133c906130b2565b80601f0160208091040260200160405190810160405280929190818152602001828054611368906130b2565b80156113b55780601f1061138a576101008083540402835291602001916113b5565b820191906000526020600020905b81548152906001019060200180831161139857829003601f168201915b505050505081526020018560060180548060200260200160405190810160405280929190818152602001828054801561140d57602002820191906000526020600020905b8154815260200190600101908083116113f9575b505050505081526020018560070160009054906101000a900473ffffffffffffffffffffffffffffffffffffffff1673ffffffffffffffffffffffffffffffffffffffff1681525090508181965096505050505050915091565b6060600060025467ffffffffffffffff811115611487576114866126f7565b5b6040519080825280602002602001820160405280156114c057816020015b6114ad61257c565b8152602001906001900390816114a55790505b50905060005b600254811015611829576000808281526020019081526020016000206040518061010001604052908160008201548152602001600182018054611508906130b2565b80601f0160208091040260200160405190810160405280929190818152602001828054611534906130b2565b80156115815780601f1061155657610100808354040283529160200191611581565b820191906000526020600020905b81548152906001019060200180831161156457829003601f168201915b5050505050815260200160028201805461159a906130b2565b80601f01602080910402602001604051908101604052809291908181526020018280546115c6906130b2565b80156116135780601f106115e857610100808354040283529160200191611613565b820191906000526020600020905b8154815290600101906020018083116115f657829003601f168201915b5050505050815260200160038201548152602001600482018054611636906130b2565b80601f0160208091040260200160405190810160405280929190818152602001828054611662906130b2565b80156116af5780601f10611684576101008083540402835291602001916116af565b820191906000526020600020905b81548152906001019060200180831161169257829003601f168201915b505050505081526020016005820180546116c8906130b2565b80601f01602080910402602001604051908101604052809291908181526020018280546116f4906130b2565b80156117415780601f1061171657610100808354040283529160200191611741565b820191906000526020600020905b81548152906001019060200180831161172457829003601f168201915b505050505081526020016006820180548060200260200160405190810160405280929190818152602001828054801561179957602002820191906000526020600020905b815481526020019060010190808311611785575b505050505081526020016007820160009054906101000a900473ffffffffffffffffffffffffffffffffffffffff1673ffffffffffffffffffffffffffffffffffffffff1673ffffffffffffffffffffffffffffffffffffffff168152505082828151811061180b5761180a6131b0565b5b6020026020010181905250808061182190613168565b9150506114c6565b508091505090565b6118396125d7565b6000600160008473ffffffffffffffffffffffffffffffffffffffff1673ffffffffffffffffffffffffffffffffffffffff168152602001908152602001600020905060006040518060c00160405280836000015481526020018360010180546118a2906130b2565b80601f01602080910402602001604051908101604052809291908181526020018280546118ce906130b2565b801561191b5780601f106118f05761010080835404028352916020019161191b565b820191906000526020600020905b8154815290600101906020018083116118fe57829003601f168201915b50505050508152602001836002018054611934906130b2565b80601f0160208091040260200160405190810160405280929190818152602001828054611960906130b2565b80156119ad5780601f10611982576101008083540402835291602001916119ad565b820191906000526020600020905b81548152906001019060200180831161199057829003601f168201915b505050505081526020018360030160009054906101000a900473ffffffffffffffffffffffffffffffffffffffff1673ffffffffffffffffffffffffffffffffffffffff16815260200183600401805480602002602001604051908101604052809291908181526020018280548015611a4557602002820191906000526020600020905b815481526020019060010190808311611a31575b505050505081526020018360050160009054906101000a900460ff16151581525090508092505050919050565b60008060008060008581526020019081526020016000209050338160070160006101000a81548173ffffffffffffffffffffffffffffffffffffffff021916908373ffffffffffffffffffffffffffffffffffffffff16021790555080600001548160070160009054906101000a900473ffffffffffffffffffffffffffffffffffffffff169250925050915091565b611b0a61257c565b600080600060025481526020019081526020016000209050600254816000018190555085816001019080519060200190611b45929190612625565b5084816002019080519060200190611b5e929190612625565b5086816003018190555083816004019080519060200190611b80929190612625565b5082816005019080519060200190611b99929190612625565b5060008160070160006101000a81548173ffffffffffffffffffffffffffffffffffffffff021916908373ffffffffffffffffffffffffffffffffffffffff1602179055506001600254611bed9190613112565b600281905550600060405180610100016040528083600001548152602001836001018054611c1a906130b2565b80601f0160208091040260200160405190810160405280929190818152602001828054611c46906130b2565b8015611c935780601f10611c6857610100808354040283529160200191611c93565b820191906000526020600020905b815481529060010190602001808311611c7657829003601f168201915b50505050508152602001836002018054611cac906130b2565b80601f0160208091040260200160405190810160405280929190818152602001828054611cd8906130b2565b8015611d255780601f10611cfa57610100808354040283529160200191611d25565b820191906000526020600020905b815481529060010190602001808311611d0857829003601f168201915b5050505050815260200183600301548152602001836004018054611d48906130b2565b80601f0160208091040260200160405190810160405280929190818152602001828054611d74906130b2565b8015611dc15780601f10611d9657610100808354040283529160200191611dc1565b820191906000526020600020905b815481529060010190602001808311611da457829003601f168201915b50505050508152602001836005018054611dda906130b2565b80601f0160208091040260200160405190810160405280929190818152602001828054611e06906130b2565b8015611e535780601f10611e2857610100808354040283529160200191611e53565b820191906000526020600020905b815481529060010190602001808311611e3657829003601f168201915b5050505050815260200183600601805480602002602001604051908101604052809291908181526020018280548015611eab57602002820191906000526020600020905b815481526020019060010190808311611e97575b505050505081526020018360070160009054906101000a900473ffffffffffffffffffffffffffffffffffffffff1673ffffffffffffffffffffffffffffffffffffffff168152509050809250505095945050505050565b600081604051602001611f16919061327e565b6040516020818303038152906040528051906020012083604051602001611f3d919061327e565b6040516020818303038152906040528051906020012014905092915050565b600080600160003373ffffffffffffffffffffffffffffffffffffffff1673ffffffffffffffffffffffffffffffffffffffff16815260200190815260200160002090508060050160009054906101000a900460ff1691505090565b611fc06125d7565b611fc861257c565b6000600160003373ffffffffffffffffffffffffffffffffffffffff1673ffffffffffffffffffffffffffffffffffffffff1681526020019081526020016000209050600080600086815260200190815260200160002090508160040181600001549080600181540180825580915050600190039060005260206000200160009091909190915055806006018260000154908060018154018082558091505060019003906000526020600020016000909190919091505560006040518060c00160405280846000015481526020018460010180546120a5906130b2565b80601f01602080910402602001604051908101604052809291908181526020018280546120d1906130b2565b801561211e5780601f106120f35761010080835404028352916020019161211e565b820191906000526020600020905b81548152906001019060200180831161210157829003601f168201915b50505050508152602001846002018054612137906130b2565b80601f0160208091040260200160405190810160405280929190818152602001828054612163906130b2565b80156121b05780601f10612185576101008083540402835291602001916121b0565b820191906000526020600020905b81548152906001019060200180831161219357829003601f168201915b505050505081526020018460030160009054906101000a900473ffffffffffffffffffffffffffffffffffffffff1673ffffffffffffffffffffffffffffffffffffffff1681526020018460040180548060200260200160405190810160405280929190818152602001828054801561224857602002820191906000526020600020905b815481526020019060010190808311612234575b505050505081526020018460050160009054906101000a900460ff1615158152509050600060405180610100016040528084600001548152602001846001018054612292906130b2565b80601f01602080910402602001604051908101604052809291908181526020018280546122be906130b2565b801561230b5780601f106122e05761010080835404028352916020019161230b565b820191906000526020600020905b8154815290600101906020018083116122ee57829003601f168201915b50505050508152602001846002018054612324906130b2565b80601f0160208091040260200160405190810160405280929190818152602001828054612350906130b2565b801561239d5780601f106123725761010080835404028352916020019161239d565b820191906000526020600020905b81548152906001019060200180831161238057829003601f168201915b50505050508152602001846003015481526020018460040180546123c0906130b2565b80601f01602080910402602001604051908101604052809291908181526020018280546123ec906130b2565b80156124395780601f1061240e57610100808354040283529160200191612439565b820191906000526020600020905b81548152906001019060200180831161241c57829003601f168201915b50505050508152602001846005018054612452906130b2565b80601f016020809104026020016040519081016040528092919081815260200182805461247e906130b2565b80156124cb5780601f106124a0576101008083540402835291602001916124cb565b820191906000526020600020905b8154815290600101906020018083116124ae57829003601f168201915b505050505081526020018460060180548060200260200160405190810160405280929190818152602001828054801561252357602002820191906000526020600020905b81548152602001906001019080831161250f575b505050505081526020018460070160009054906101000a900473ffffffffffffffffffffffffffffffffffffffff1673ffffffffffffffffffffffffffffffffffffffff16815250905081819550955050505050915091565b60405180610100016040528060008152602001606081526020016060815260200160008152602001606081526020016060815260200160608152602001600073ffffffffffffffffffffffffffffffffffffffff1681525090565b6040518060c00160405280600081526020016060815260200160608152602001600073ffffffffffffffffffffffffffffffffffffffff168152602001606081526020016000151581525090565b828054612631906130b2565b90600052602060002090601f016020900481019282612653576000855561269a565b82601f1061266c57805160ff191683800117855561269a565b8280016001018555821561269a579182015b8281111561269957825182559160200191906001019061267e565b5b5090506126a791906126ab565b5090565b5b808211156126c45760008160009055506001016126ac565b5090565b6000604051905090565b600080fd5b600080fd5b600080fd5b600080fd5b6000601f19601f8301169050919050565b7f4e487b7100000000000000000000000000000000000000000000000000000000600052604160045260246000fd5b61272f826126e6565b810181811067ffffffffffffffff8211171561274e5761274d6126f7565b5b80604052505050565b60006127616126c8565b905061276d8282612726565b919050565b600067ffffffffffffffff82111561278d5761278c6126f7565b5b612796826126e6565b9050602081019050919050565b82818337600083830152505050565b60006127c56127c084612772565b612757565b9050828152602081018484840111156127e1576127e06126e1565b5b6127ec8482856127a3565b509392505050565b600082601f830112612809576128086126dc565b5b81356128198482602086016127b2565b91505092915050565b6000819050919050565b61283581612822565b811461284057600080fd5b50565b6000813590506128528161282c565b92915050565b6000806040838503121561286f5761286e6126d2565b5b600083013567ffffffffffffffff81111561288d5761288c6126d7565b5b612899858286016127f4565b92505060206128aa85828601612843565b9150509250929050565b600081519050919050565b600082825260208201905092915050565b6000819050602082019050919050565b6000819050919050565b6128f3816128e0565b82525050565b600081519050919050565b600082825260208201905092915050565b60005b83811015612933578082015181840152602081019050612918565b83811115612942576000848401525b50505050565b6000612953826128f9565b61295d8185612904565b935061296d818560208601612915565b612976816126e6565b840191505092915050565b61298a81612822565b82525050565b600081519050919050565b600082825260208201905092915050565b6000819050602082019050919050565b60006129c883836128ea565b60208301905092915050565b6000602082019050919050565b60006129ec82612990565b6129f6818561299b565b9350612a01836129ac565b8060005b83811015612a32578151612a1988826129bc565b9750612a24836129d4565b925050600181019050612a05565b5085935050505092915050565b600073ffffffffffffffffffffffffffffffffffffffff82169050919050565b6000612a6a82612a3f565b9050919050565b612a7a81612a5f565b82525050565b600061010083016000830151612a9960008601826128ea565b5060208301518482036020860152612ab18282612948565b91505060408301518482036040860152612acb8282612948565b9150506060830151612ae06060860182612981565b5060808301518482036080860152612af88282612948565b91505060a083015184820360a0860152612b128282612948565b91505060c083015184820360c0860152612b2c82826129e1565b91505060e0830151612b4160e0860182612a71565b508091505092915050565b6000612b588383612a80565b905092915050565b6000602082019050919050565b6000612b78826128b4565b612b8281856128bf565b935083602082028501612b94856128d0565b8060005b85811015612bd05784840389528151612bb18582612b4c565b9450612bbc83612b60565b925060208a01995050600181019050612b98565b50829750879550505050505092915050565b60006020820190508181036000830152612bfc8184612b6d565b905092915050565b60008060408385031215612c1b57612c1a6126d2565b5b600083013567ffffffffffffffff811115612c3957612c386126d7565b5b612c45858286016127f4565b925050602083013567ffffffffffffffff811115612c6657612c656126d7565b5b612c72858286016127f4565b9150509250929050565b60008115159050919050565b612c9181612c7c565b82525050565b600060c083016000830151612caf60008601826128ea565b5060208301518482036020860152612cc78282612948565b91505060408301518482036040860152612ce18282612948565b9150506060830151612cf66060860182612a71565b5060808301518482036080860152612d0e82826129e1565b91505060a0830151612d2360a0860182612c88565b508091505092915050565b60006020820190508181036000830152612d488184612c97565b905092915050565b612d59816128e0565b8114612d6457600080fd5b50565b600081359050612d7681612d50565b92915050565b600060208284031215612d9257612d916126d2565b5b6000612da084828501612d67565b91505092915050565b600061010083016000830151612dc260008601826128ea565b5060208301518482036020860152612dda8282612948565b91505060408301518482036040860152612df48282612948565b9150506060830151612e096060860182612981565b5060808301518482036080860152612e218282612948565b91505060a083015184820360a0860152612e3b8282612948565b91505060c083015184820360c0860152612e5582826129e1565b91505060e0830151612e6a60e0860182612a71565b508091505092915050565b60006040820190508181036000830152612e8f8185612c97565b90508181036020830152612ea38184612da9565b90509392505050565b612eb581612a5f565b8114612ec057600080fd5b50565b600081359050612ed281612eac565b92915050565b600060208284031215612eee57612eed6126d2565b5b6000612efc84828501612ec3565b91505092915050565b612f0e816128e0565b82525050565b612f1d81612a5f565b82525050565b6000604082019050612f386000830185612f05565b612f456020830184612f14565b9392505050565b600080600080600060a08688031215612f6857612f676126d2565b5b6000612f7688828901612843565b955050602086013567ffffffffffffffff811115612f9757612f966126d7565b5b612fa3888289016127f4565b945050604086013567ffffffffffffffff811115612fc457612fc36126d7565b5b612fd0888289016127f4565b935050606086013567ffffffffffffffff811115612ff157612ff06126d7565b5b612ffd888289016127f4565b925050608086013567ffffffffffffffff81111561301e5761301d6126d7565b5b61302a888289016127f4565b9150509295509295909350565b600060208201905081810360008301526130518184612da9565b905092915050565b61306281612c7c565b82525050565b600060208201905061307d6000830184613059565b92915050565b7f4e487b7100000000000000000000000000000000000000000000000000000000600052602260045260246000fd5b600060028204905060018216806130ca57607f821691505b6020821081036130dd576130dc613083565b5b50919050565b7f4e487b7100000000000000000000000000000000000000000000000000000000600052601160045260246000fd5b600061311d826128e0565b9150613128836128e0565b9250827fffffffffffffffffffffffffffffffffffffffffffffffffffffffffffffffff0382111561315d5761315c6130e3565b5b828201905092915050565b6000613173826128e0565b91507fffffffffffffffffffffffffffffffffffffffffffffffffffffffffffffffff82036131a5576131a46130e3565b5b600182019050919050565b7f4e487b7100000000000000000000000000000000000000000000000000000000600052603260045260246000fd5b60006131ea826128e0565b91506131f5836128e0565b925082821015613208576132076130e3565b5b828203905092915050565b7f4e487b7100000000000000000000000000000000000000000000000000000000600052603160045260246000fd5b600081905092915050565b6000613258826128f9565b6132628185613242565b9350613272818560208601612915565b80840191505092915050565b600061328a828461324d565b91508190509291505056fea26469706673582212201ecc7d7ce33d0ce0b4bde52fdfcac60af1b7d45735012a250c764994a2bad08464736f6c634300080d0033",
  "immutableReferences": {},
  "source": "pragma solidity ^0.8.0;\n\ncontract Pets {\n    struct Pet {\n        uint id;\n        string name;\n        string img_hash;\n        int age;\n        string breed;\n        string location;\n        uint[] likes;\n        address adopter;\n    }\n\n    struct User {\n        uint id;\n        string username;\n        string email;\n        address account_number;\n        uint[] liked;\n        bool created;\n    }\n    \n    mapping(uint => Pet) allpets;\n    mapping(address => User) allusers;\n\n    uint pet_counter;\n    uint user_counter;\n\n\n    function checkUser() public view returns (bool) {\n        User storage user = allusers[msg.sender];\n        return user.created;\n    }\n\n    function getUser(address useraddress) external view returns (User memory) {\n        User storage user = allusers[useraddress];\n        User memory memo_user = User(user.id, user.username, user.email, user.account_number, user.liked, user.created);\n        return memo_user;\n    }\n\n    function registerUser(string memory username, string memory email) public returns (User memory) {\n        User storage user = allusers[msg.sender];\n        user.username = username;\n        user.email = email;\n        user.id = user_counter;\n        user.account_number = msg.sender;\n        user.created = true;\n        user_counter = user_counter + 1;\n        User memory memo_user = User(user.id, user.username, user.email, user.account_number, user.liked, user.created);\n        return memo_user;\n\n\n    }\n\n\n    function getPets() public view returns (Pet[] memory) {\n        Pet[] memory ret = new Pet[](pet_counter);\n        for (uint i = 0; i < pet_counter; i++) {\n            ret[i] = allpets[i];\n        }\n        return ret;\n    }\n\n    function compareStrings(string memory a, string memory b) public view returns (bool) {\n        return (keccak256(abi.encodePacked((a))) == keccak256(abi.encodePacked((b))));\n    }\n\n    function getSelectedPets(string memory breed, int age) public view returns (Pet[] memory) {\n        uint num = 0;\n        for (uint i = 0; i < pet_counter; i++) {\n            Pet memory cur_pet = allpets[i];\n            if ((bytes(breed).length == 0 || compareStrings(cur_pet.breed, breed)) && (age == -1 || cur_pet.age == age)) {\n                num = num + 1;\n            }\n        }\n        Pet[] memory ret = new Pet[](num);\n        uint cur_idx = 0;\n        for (uint i = 0; i < pet_counter; i++) {\n            Pet memory cur_pet = allpets[i];\n            if ((bytes(breed).length == 0 || compareStrings(cur_pet.breed, breed)) && (age == -1 || cur_pet.age == age)) {\n                ret[cur_idx] = cur_pet;\n                cur_idx = cur_idx + 1;\n            }\n        }\n        return ret;\n    }\n\n    function addPet(int age, string memory name, string memory img_hash, string memory breed, string memory location) public returns (Pet memory) {\n        Pet storage p = allpets[pet_counter];\n        p.id = pet_counter;\n        p.name = name;\n        p.img_hash = img_hash;\n        p.age = age;\n        p.breed = breed;\n        p.location = location;\n        p.adopter = address(0);\n        pet_counter = pet_counter + 1;\n        Pet memory ret = Pet(p.id, p.name, p.img_hash, p.age, p.breed, p.location, p.likes, p.adopter);\n        return ret;\n    }\n\n    function adopt(uint id) public returns (uint, address) {\n        Pet storage p = allpets[id];\n        p.adopter = msg.sender;\n        return (p.id, p.adopter);\n    }\n\n    function likePet(uint petid) public returns (User memory, Pet memory) {\n        User storage u = allusers[msg.sender];\n        Pet storage p = allpets[petid];\n        u.liked.push(p.id);\n        p.likes.push(u.id);        \n\n        User memory ret_u = User(u.id, u.username, u.email, u.account_number, u.liked, u.created);\n        Pet memory ret_p = Pet(p.id, p.name, p.img_hash, p.age, p.breed, p.location, p.likes, p.adopter);\n\n        return (ret_u, ret_p);\n    }\n\n    function dislikePet(uint petid) public returns (User memory, Pet memory) {\n        User storage u = allusers[msg.sender];\n        Pet storage p = allpets[petid];\n        \n        uint delete_idx;\n\n        for (uint i = 0; i < u.liked.length; i++) {\n            if (u.liked[i] == petid) {\n                delete_idx = i;\n                break;\n            }\n        }\n        u.liked[delete_idx] = u.liked[u.liked.length - 1];\n        u.liked.pop();\n\n        for (uint i = 0; i < p.likes.length; i++) {\n            if (p.likes[i] == u.id) {\n                delete_idx = i;\n                break;\n            }\n        }\n        p.likes[delete_idx] = p.likes[p.likes.length - 1];\n        p.likes.pop();\n\n\n\n        User memory ret_u = User(u.id, u.username, u.email, u.account_number, u.liked, u.created);\n        Pet memory ret_p = Pet(p.id, p.name, p.img_hash, p.age, p.breed, p.location, p.likes, p.adopter);\n\n        return (ret_u, ret_p);\n    }\n\n}",
  "sourcePath": "/Users/chuntungchu/Documents/ece-meng/aps1050/APS1050_project/solidity/contracts/Pets.sol",
  "compiler": {
    "name": "solc",
    "version": "0.8.13+commit.abaa5c0e.Emscripten.clang"
  },
  "schemaVersion": "3.4.6",
  "updatedAt": "2022-04-22T22:37:10.945Z",
  "networkType": "ethereum",
  "devdoc": {
    "kind": "dev",
    "methods": {},
    "version": 1
  },
  "userdoc": {
    "kind": "user",
    "methods": {},
    "version": 1
  }
}